:020000040800F2
:1000000010440020310200086D060008A705000812
:1000100069060008A1050008091F0008000000008B
:10002000000000000000000000000000F71B0008B6
:10003000A505000800000000C10200080D1D000811
:100040004B0200084B0200084B0200084B0200085C
:100050004B0200084B0200084B0200084B0200084C
:100060004B0200084B0200084B0200084B0200083C
:100070004B0200084B0200084B0200084B0200082C
:100080004B0200084B0200084B0200084B0200081C
:100090004B0200084B0200084B0200084B0200080C
:1000A0004B0200084B0200084B0200084B020008FC
:1000B0004B0200084B0200084B0200084B020008EC
:1000C0004B0200084B0200084B0200084B020008DC
:1000D0004B020008851D00084B0200084B02000877
:1000E0004B0200084B0200084B0200084B020008BC
:1000F0004B0200084B0200084B0200084B020008AC
:100100004B0200084B0200084B0200084B0200089B
:100110004B0200084B0200084B0200084B0200088B
:100120004B0200084B0200084B0200084B0200087B
:100130004B0200084B0200084B0200084B0200086B
:100140004B0200084B0200084B0200084B0200085B
:100150004B0200084B0200084B0200084B0200084B
:100160004B0200084B0200084B0200084B0200083B
:100170004B0200084B0200084B0200084B0200082B
:100180004B0200084B02000800F002F800F041F8B2
:100190000AA090E8000C82448344AAF10107DA45E2
:1001A00001D100F036F8AFF2090EBAE80F0013F0F3
:1001B000010F18BFFB1A43F0010318474C1F000042
:1001C0006C1F0000103A24BF78C878C1FAD85207D3
:1001D00024BF30C830C144BF04680C6070470000C1
:1001E0000023002400250026103A28BF78C1FBD840
:1001F000520728BF30C148BF0B607047642900F028
:10020000DD80002070471FB501F0F8FE1FBD10B55E
:1002100010BD00F095F91146FFF7F5FF01F088FEDB
:1002200000F0B3F903B4FFF7F2FF03BC01F06EFE78
:100230000948804709480047FEE7FEE7FEE7FEE77A
:10024000FEE7FEE7FEE7FEE7FEE7FEE704480549B6
:10025000054A064B704700001D1D00088901000873
:10026000101400201044002010340020103400200E
:10027000EFF3108072B6704780F310887047264CF9
:100280004FF6FF7525604FF0000484F30988234C76
:100290004FF001052570224C4FF08055256062B665
:1002A000FEE730B41E4C4FF08055256030BC7047DF
:1002B00030B41B4C4FF08055256030BC704700BFF8
:1002C00072B6EFF3098050B11EF0100F08BF20ED99
:1002D000108A203880E8F00F12490968086000B5DC
:1002E000114880475DF804EB104811490A78027004
:1002F0000C4810490A680260106890E8F00F20303E
:100300001EF0100F08BFB0EC108A80F309884EF081
:10031000040E62B6704700BF22ED00E02E00002000
:1003200004ED00E0340000202D1000082300002020
:10033000240000203C000020704700000FB4044956
:1003400010B503AA029800F0D1F810BC5DF814FBB8
:10035000040000202DE9F0410E46044600202062F2
:100360002046E168884730B3252805D0D4E901212B
:100370009047206A401CF2E7E16820460027884742
:10038000050018D0A5F14100192802D820354FF4F6
:1003900000673246294620462760FFF72FFF40B10D
:1003A000012804D0F61D26F007060836D8E7361DCA
:1003B000D6E72846DAE7206ABDE8F0812DE9F0416A
:1003C0000646002410687529314616A510D0AFF3F3
:1003D0000080002802DA404213A507E031688A074E
:1003E00001D512A502E0490704D511A5012401E0B9
:1003F000AFF3008000210A2206F1240709E0B0FBD8
:10040000F2FCB0FBF2F302FB1C00303078541846CB
:10041000491C0028F3D123462A463046BDE8F04166
:1004200000F00BB8000000002D0000002B000000C1
:10043000200000007047704770472DE9F0470D46D7
:1004400099469246044600F124080168880604D5BE
:10045000E06921F01001216000E00120A84201DDE7
:10046000471B00E00027A1697A1902EB0900081A6E
:10047000A0612078C00602D42046AFF30080002699
:1004800008E0D4E901211AF806009047206A401CD0
:10049000761C20624E45F4DB2078C0060AD5204643
:1004A000AFF3008006E0D4E9012130209047206AB4
:1004B000401C2062381EA7F10107F4DC07E0D4E9F4
:1004C000012118F805009047206A401C2062281E70
:1004D000A5F10105F3DC2046AFF30080207800068B
:1004E00002D50220BDE8F0870120FBE7074B70B57D
:1004F0000D467B4400F011F80446284601F008FD43
:1005000010B14FF0FF3070BD204670BD231A0000BF
:1005100001694A1C02610878704700B58FB0CDE9C7
:1005200001310021059105497944CDE903101146B7
:100530006846FFF70FFF0FB000BD0000E5FFFFFFAB
:10054000754600F029F8AE4605006946534620F08E
:100550000700854618B020B5FFF778FEBDE82040BB
:100560004FF000064FF000074FF000084FF0000B6F
:1005700021F00701AC46ACE8C009ACE8C009ACE822
:10058000C009ACE8C0098D4670470446AFF300804F
:100590002046FFF747FE000000487047AC130020DC
:1005A00000BFFEE7704700BFFEE700002948006873
:1005B00040F0240027490860274800682749084080
:1005C0002549086008460068254908432249086013
:1005D000081D006820F4C860091D0860081D006837
:1005E0001E4908401C4908310860081D00681B4965
:1005F000084019490C31086017481430006840F46D
:10060000C8601549143108601648006820F00300DE
:10061000144908600846006840F001000860081DA1
:10062000006820F00100091D0860081D006820F026
:100630000300091D0860081D006820F00300091D63
:10064000086008481430006840F001000549143182
:10065000086070473038024000140240FFCFC3FFEB
:10066000001014000008024000BFFEE77047F0B51C
:1006700003460C4603F00701C1F10700042801D925
:10068000042001E0C1F107000646081D072801D239
:10069000002000E0C81E05460120B040401E20405A
:1006A000A8400127AF407F1E17403843F0BD10B56A
:1006B00000F016F800F0B4FF00F0DCFF00F0FCFFE3
:1006C00000F084FF00F044FF01F090F801F034F8EE
:1006D00001F05AF800F07AFD00F008F810BD0000B3
:1006E0000020014908807047680000207047000022
:1006F00006480078012808D105480078FF2804D270
:1007000003480078401C0249087070472E00002002
:100710002100002010B500241A480078012830D1AB
:10072000FFF7A6FD04461848007820B11648007867
:10073000401E1549087014480078F8B9134800782D
:10074000E0B901F0B5F812481249097850F82100D3
:10075000114908600F4800781049097888420DD087
:100760000D480068806B401C0B49096888630C4881
:100770000068401C0A490860FFF79AFD2046FFF711
:100780007BFD10BD2E000020210000202200002053
:1007900084070020240000203C00002023000020CB
:1007A0000800002010B500240B480078012811D162
:1007B000FFF75EFD04460948007840B90848007814
:1007C000FF2804D206480078401C054908702046DE
:1007D000FFF752FD10BD00002E0000202100002078
:1007E0002200002010B5002413480078012821D1F0
:1007F000FFF73EFD044611480078C0B10F4800786D
:10080000401E0E4908700846007860B90C48007810
:1008100028B92046FFF730FD01F010F80AE0204625
:10082000FFF72AFD06E02046FFF726FD02E02046FE
:10083000FFF722FD10BD00002E0000202200002046
:100840002100002070B5054600260F48007808B149
:10085000002070BDFFF70CFD06460C4804680068D8
:1008600020B10A4800684068084908603046FFF730
:1008700003FD3CB1032020702581002060602046EC
:1008800000F058FE2046E4E7210000200C00002084
:100890002DE9F04105460E46144600272878032826
:1008A00003D001202070BDE8F0813148007810B1FC
:1008B00002202070F7E72F48007810B10D2020703B
:1008C000F1E7FFF7D5FC0746288940B12889401E8B
:1008D00028813846FFF7D0FC00202070E3E7264847
:1008E000006890F8300040F001002349096881F861
:1008F000300000202049096881F831001E48006856
:10090000C662284600F0D8FD3846FFF7B5FC00F077
:1009100095FFFFF7ADFC07461748006890F83100D7
:1009200020B1012809D0022806D102E00020207061
:100930000BE00E20207008E000BF29460E4800683A
:1009400000F0A4FD0A20207000BF00BF00200A496B
:10095000096881F830000849096881F831000649C2
:100960000968C8613846FFF787FC00BF9BE70000B5
:1009700021000020220000203400002070B5044631
:1009800000252078032801D0012070BDFFF770FCFE
:100990000546A07A60B1002301221946204600F0E6
:1009A00033FD2846FFF768FC00F048FF0020ECE725
:1009B00020894FF6FF71884207D22089401C208190
:1009C0002846FFF759FC0020DFE72846FFF754FCD4
:1009D0003320DAE710B50B48007890B900F068FFD3
:1009E000094800780949087009480749097850F80A
:1009F0002100084908600846006807490860FFF7B9
:100A00003EFC10BD2E00002024000020230000200A
:100A1000840700203C0000203400002070470000C4
:100A20002DE9FE4F06460F4690461C464FF0000942
:100A3000FFF71EFC81461F48007828B14846FFF7A3
:100A40001BFC3C20BDE8FE8F1B4850F8240060BB17
:100A50000120194941F824004846FFF70DFC002306
:100A600042463946304600F0B5F9824600200090F3
:100A700001900346024651460290204600F092FF44
:100A8000054635B90D48007801280CD100F0D6FE96
:100A900009E0FFF7EDFB81460020074941F82400FB
:100AA0004846FFF7E9FB2846CCE74846FFF7E4FB5A
:100AB0002820C7E721000020840700202E00002006
:100AC0002DE9F04F85B081468A4693461C46DDE904
:100AD0000F78129D00200390FFF7CAFB0390234874
:100AE000007830B10398FFF7C7FB3C2005B0BDE8A4
:100AF000F08F1F4850F8240088BB01201C4941F8A2
:100B000024000398FFF7B8FB2A464146384601F017
:100B100065F82B465A465146484600F05BF904906A
:100B20001198CDE9008002953A4620460E9B049923
:100B300000F038FF064636B90E48007801280CD17F
:100B400000F07CFE09E0FFF793FB039000200849CA
:100B500041F824000398FFF78FFB3046C6E7FFE714
:100B60000398FFF789FB2820C0E700002100002040
:100B7000840700202E000020704700002DE9F0417E
:100B8000054600274748007810B14020BDE8F081B5
:100B90003F2D01D13E20F9E7FFF76AFB0746FF2D05
:100BA00003D14148006890F83250404850F8254041
:100BB00024B93846FFF760FB4320E7E7012C04D156
:100BC0003846FFF759FB3D20E0E714F8340F384969
:100BD000085C617888432178354A505414F8340908
:100BE0001146085C30B994F83610324800788843D2
:100BF00030490870E06918B12046E16900F046FC10
:100C0000666A16B1304600F0CFFC0020E06284F83E
:100C1000300084F8310028480078FF2804D22648A4
:100C20000078401C244908703846FFF725FB00F087
:100C3000E9FBFFF71DFB07461F48007820B11E485F
:100C40000078401E1C490870204600F041F81B48FF
:100C50000078401E194908700020144941F8250009
:100C6000A06930B900206169886115496069086030
:100C700005E0D4E905014861D4E90510886111480F
:100C8000006860610F4804600FA0E0643846FFF719
:100C9000F3FA0E480078012801D100F0CFFD0020C2
:100CA00074E70000210000203400002084070020A9
:100CB0002600002025000020220000202F00002018
:100CC00040000020380000203F0000002E000020DF
:100CD000704770472DE9F04106460F4614464FF025
:100CE00000081548007818B112202070BDE8F08186
:100CF000FFF7BEFA8046FF2E03D11048006890F837
:100D000032600F4850F826502DB94046FFF7B4FA2C
:100D100043202070EAE7012D05D14046FFF7ACFAE9
:100D200043202070E2E7EF644046FFF7A5FA002079
:100D3000207000BFDAE7000021000020340000200E
:100D400084070020704770472DE9F04707460D469D
:100D50004FF0000A002028606860FFF789FA824699
:100D6000FF2F03D11948006890F83270184850F8E6
:100D700027402CB95046FFF77FFA4320BDE8F087A3
:100D8000012C04D15046FFF777FA4320F6E7207C88
:100D900000F0010020B95046FFF76EFA4520EDE75C
:100DA0000026D4F80C90D4F808805046FFF764FA77
:100DB00000E0761C58F8041B0029FAD0B000286027
:100DC000A9EB0600800068600020D7E7340000200F
:100DD0008407002070B5044610460026051F2846EB
:100DE0002E604FF48056051F28462E601526051FDD
:100DF00028462E601426051F28462E601326051F40
:100E000028462E601226051F28462E601126051F33
:100E100028462E601026051F28462E600926051F2D
:100E200028462E600826051F28462E600726051F27
:100E300028462E600626051F28462E600526051F1B
:100E400028462E600426051F28462E600326051F0F
:100E500028462E600226051F28462E600126051F03
:100E600028462E600026051F28462E604FF080750C
:100E70000560051F28462C60414E051F28462E6040
:100E80004FF01236051F28462E604FF00336051F1F
:100E900028462E604FF00236051F28462E60761039
:100EA000051F28462E60051F284629603126051F8C
:100EB00028462E603026051F28462E602926051F4D
:100EC00028462E602826051F28462E602726051F47
:100ED00028462E602626051F28462E602526051F3B
:100EE00028462E602426051F28462E602326051F2F
:100EF00028462E602226051F28462E602126051F23
:100F000028462E602026051F28462E601926051F1C
:100F100028462E601826051F28462E601726051F16
:100F200028462E601626051F28462E604FF01136E3
:100F3000051F28462E604FF01036051F28462E60EC
:100F40004FF00936051F28462E604FF00836051F62
:100F500028462E604FF00736051F28462E604FF0BA
:100F60000636051F28462E604FF00536051F284619
:100F70002E604FF00436051F28462E6070BD00001D
:100F8000011B00082DE9F04105464FF00008FFF76E
:100F90006FF98046FF2D05D12048006890F8325047
:100FA000012608E01D48006890F83200A84201D1EF
:100FB000012600E000261A4850F825402CB940468A
:100FC000FFF75AF94820BDE8F081012C04D14046D2
:100FD000FFF752F94320F6E794F834701148C05DEA
:100FE00094F8351088430F49C8550846C05D30B99C
:100FF00094F836100C48007888430B49087094F830
:10100000300040F0080084F830004046FFF734F923
:10101000012E01D100F012FC0020D4E734000020A2
:1010200084070020260000202500002070470000D3
:1010300070B5054600261748007800B170BD164807
:10104000007800B1FAE71DB3FFF712F9064613481E
:10105000006890F834401248005D1049096891F822
:10106000351088430E4908550846005D40B90B48C5
:10107000006890F836100B480078884309490870DA
:1010800006480068C5623046FFF7F6F800F0D6FB68
:1010900000BFD3E721000020220000203400002000
:1010A000260000202500002070B5002600F072F810
:1010B000FFF7DEF8064631480068401C2F490860FB
:1010C0003046FFF7D9F82E480078012853D12D4833
:1010D000007820B1012804D0022809D103E00125BD
:1010E0000BE0002509E0012501202649087004E0F5
:1010F000012500202349087000BF00BF05B970BD5D
:101100002148046833E0FFF7B3F80646E06A50B3BD
:10111000E06A401EE062E06A28BB94F8300000F00C
:10112000370040B114F8300F00F0C80020700120E3
:101130006070303C02E0002084F8310094F8300008
:1011400000F0080078B93434A078104909780843D1
:101150000E49087020780E49085C6178084314F83D
:1011600034190B4A505464693046FFF785F894F8F7
:1011700032003F28C7D100BFC1E700004C0000206B
:101180002E00002044000020400000202500002008
:101190002600002010B507480088401C054908803B
:1011A00008460088022803D30020088000F004F8D5
:1011B00010BD00006800002010B503480068FFF76C
:1011C000DDFB0446204610BD5C0000202DE9F04107
:1011D0004FF42071224800F0FFFA4021214800F02E
:1011E000FBFA002514E0681C86B205EB85001C495B
:1011F00001EBC00406EB860001EBC0076420207001
:10120000002084F82500E76017A02062681C85B2E2
:101210000F2DE8D305EB8500114901EBC0046420D4
:101220002070002084F82500E0600FA020620020DC
:101230000E4908600E49088010200E4908800848B1
:101240000D4908600120FFF7FDFA0C4908600020F5
:10125000FFF7F8FA0A49086000F014F8BDE8F081D9
:10126000EC0C00206C1100203F0000005400002016
:101270005200002050000020600000205800002094
:101280005C00002000B587B00320002180220A4BBB
:10129000CDE90132CDE903104FF6FD700B46074A48
:1012A00000900748FFF70CFC06AA06A10020FFF7F4
:1012B00011FD07B000BD00006C0F00206811002078
:1012C0004113000875432F4F532D494920546D7227
:1012D0000000000070B50B46032580F82550012B57
:1012E00005D1154EC5693668354445610CE0856900
:1012F0002DB9114EC56936683544456104E00E4E7E
:101300008569366835444561057D05F007040B4D58
:1013100005EBC4010D682DB908600025C5600125E5
:101320008D8006E00A680860C26010618D886D1CBF
:101330008D800025056170BD540000206C110020D7
:1013400008B500BF00BF6A4600211A480068FFF7D1
:101350009FFAFFF727FA18480068401C16490860F2
:101360000846007800F00708144800EBC8073C68FE
:101370001AE0E668104960690968884213D120467E
:1013800000F01EF894F82400022804D10121204620
:10139000FFF7A0FF02E0022084F82500656815B180
:1013A0002046A168A8473446002CE2D1FFF71AFA7C
:1013B000C9E700005C000020540000206C110020F0
:1013C00030B5057D05F007040D4D05EBC4031D6820
:1013D000854205D1C168196039B100250D6104E06D
:1013E0000169C268CA6002B11161012580F8255007
:1013F0000025C56005619D886D1E9D8030BD000083
:101400006C110020704700002DE9F04F05460F4693
:1014100090469946A87A19490E5C05F10B00805D4B
:1014200011F800B00BEBC60000F0FF0A144850F8AA
:101430002A4000202034E0602760207C20EA080059
:10144000207484F81190207C203C00F0080068B9DA
:1014500094F836000B49097808430A4908700A488D
:10146000805D94F835100843074988552946204681
:1014700000F00CF85046BDE8F08F00000620000890
:1014800084070020250000202600002010B590F8D9
:10149000342001F10B039B5C90F83540A34301F12C
:1014A0000B04A35423469B5C23B98B7A90F83640F7
:1014B000A3438B7210BD000010B51B4A1268D061A7
:1014C000194A126892F8343000F10B02D25C164BC4
:1014D0001B6893F835301A43134B1B6893F834405C
:1014E00000F10B031A55827A0F4B1B6893F83630C4
:1014F0001A4382720C4A126892F834100B4A525CFA
:10150000094B1B6893F835309A43084B5A541A46D6
:10151000525C42B9044A126892F83630044A127892
:101520009A43034B1A7010BD34000020260000209F
:1015300025000020014600228A72002005E00023D9
:1015400001F10B021354421CD0B20828F7D37047A4
:101550002DE9F0415021114800F03EF900250DE041
:10156000681C86B20D4800EB051400EB061700203E
:10157000207067600AA0E060681C85B2042DEFD37C
:10158000064800EB051400202070606004A0E060B5
:10159000024804490860BDE8F081000034030020DF
:1015A0003F0000001000002030B501464A6808687E
:1015B0002AB9CC68606028B10025456002E010605F
:1015C00000B142608B6800255D6230BD70B5C821F6
:1015D000114800F001F900230FE0581C85B203EB1D
:1015E00083000D4901EB800405EB850001EB8006CB
:1015F000002020706660581C83B2092BEDD303EBEA
:101600008300054901EB80040020207060600846DB
:101610000249086070BD00006C0200200C00002030
:1016200000200A4908600A4908700A4908700A49F6
:1016300008700A4908700A4908600A4908600A499E
:1016400008600A4908600A49087070474C00002089
:1016500021000020220000202F0000202E0000206A
:1016600008000020300000201C000020180000208E
:101670002000002000210A4A1170002004E000210F
:10168000084A1154411CC8B20828F8D30021064A60
:101690001170064A1170064A1160064A11607047BF
:1016A0002500002026000020230000202400002028
:1016B0003C0000203400002070B54FF47C711948C4
:1016C00000F08AF84FF48071174800F085F8002484
:1016D00013E0601CC5B2C4EBC40000EB400011492C
:1016E00001EB8003C5EBC50000EB400001EB800679
:1016F0005E610EA0D864601CC4B20B2CE9D3C4EBAD
:10170000C40000EB4000074901EB80030020586152
:1017100006A0D86400200649086002480549086010
:1017200070BD000084080020840700203F000000F6
:10173000400000203800002000B587B003200021C1
:1017400080220A4BCDE90132CDE903104FF6FF703C
:101750003F23074A00900748FFF7B2F906AA06A1FF
:101760003F20FFF7B7FA07B000BD00008405002056
:1017700080070020D91A000875432F4F532D49497F
:101780002049646C6500000000B587B0032000218B
:1017900080220A4BCDE90132CDE903104FF6FE70ED
:1017A0003E23074A00900748FFF78AF906AA06A1D8
:1017B0003E20FFF78FFA07B000BD00008403002031
:1017C00080050020191B000875432F4F532D4949F0
:1017D000205374617400000004E0002200F8012B23
:1017E0004A1E91B20029F8D1704700002DE9F0415E
:1017F00078211048FFF7F0FF00240DE0601C86B24E
:1018000004EB44000B4901EBC00506EB460001EB7D
:10181000C0072F60601C84B2042CEFD304EB44009B
:10182000044901EBC0050020286008460249086011
:10183000BDE8F081740C00204800002010B50024A1
:10184000FEF716FD044613480078F8B912480078F0
:10185000E0B900F02DF811481149097850F821003D
:10186000104908600E4800780F49097888420DD069
:101870000C480068806B401C0A49096888630B4863
:101880000068401C09490860FEF70BFD2046FEF782
:10189000F3FC10BD2100002022000020840700205E
:1018A000240000203C00002023000020080000202D
:1018B0000649074A1278885C0649095C034A515C6C
:1018C00001EBC001044A11707047000006200008B7
:1018D0002500002026000020240000202DE9F047EC
:1018E00004460D464FF0E020006920F004004FF060
:1018F000E02108610846006940F00200086104FB2D
:1019000005F04FF47A714843C0084FF0E021486178
:101910000846006940F001000861481704220026CB
:1019200037461346C3F10709B9F1040F02D94FF046
:10193000040901E0C3F10709C84603F10409B9F13C
:10194000070F02D24FF0000901E0A3F10309CC46D2
:101950004FF0010909FA08F9A9F1010909EA060994
:1019600009FA0CF94FF0010A0AFA0CFAAAF1010A75
:101970000AEA070A49EA0A0100BF002807DA0A074B
:10198000160E064A00F00F031B1FD65403E00A0789
:10199000130E034A135400BFBDE8F08718ED00E0B2
:1019A00000E400E02DE9F84F05460F4690469946C1
:1019B000DDE90AAB00200090FEF75AFC00903F489A
:1019C0000468002C74D0183454F8040C3B490860A7
:1019D0000098FEF751FC44F8187CA576002020768C
:1019E0006076606144F814BC44F80CAC44F8108C88
:1019F0000C9824F8080C24F8069C0020E077E810E6
:101A0000207705F00700E076217F01208840A0774D
:101A1000E17E01208840607700206060E060A06087
:101A20002062A0626062E062206325A06063183CCF
:101A3000002606E0002104F1500040F82610701C3A
:101A4000C6B2002EF6D02046FEF7E8FF2046FFF78C
:101A500093F8FEF70DFC00901A4840F825401A480C
:101A6000006860610020A0611748006810B1164846
:101A700000688461144804603434A07813490978FC
:101A800008431249087020781149085C61780843BE
:101A900014F834190E4A50540E480078401C0D4971
:101AA00008700098FEF7E8FB0020BDE8F88FFFE71C
:101AB0000098FEF7E1FB4220F7E700003800002025
:101AC0003F00000084070020400000202500002087
:101AD000260000202F000020002400BF00BFFEF7DA
:101AE000C7FB044605480068401C044908602046BE
:101AF000FEF7C2FBFFF7EDF8F1E700003000002031
:101B000010B504480068FFF71DF9FF20FFF736F80D
:101B100010BD000034000020002400BF02E0282097
:101B2000FFF786FA194800780028F8D018480068AE
:101B30006421B0FBF1F0164908600846006828B936
:101B4000002014490870FF20FFF71CFA00BFFEF7C1
:101B50008FFB0446104800681049086000200E49B9
:101B600008602046FEF788FB0C48006808490968B1
:101B7000B0FBF1F0C0F1640006490870FFF7E3F82C
:101B800000F00EF81420FFF753FAE0E720000020E1
:101B90001800002014000020300000201C0000204D
:101BA0007CB5002514E069462846FFF7CDF80646C7
:101BB00066B9094850F8254044B1012C06D0D4E953
:101BC000020100EB810060640198A064681CC5B24A
:101BD0003F2DE8D97CBD00008407002002F00103FE
:101BE00043B102F002032BB102E0491E002308C0FA
:101BF0000029FAD1704770470CB500200190009081
:101C00003448006840F480303249086000BF3148F1
:101C1000006800F4003000900198401C019000988A
:101C200018B90198B0F5A04FF1D12A48006800F426
:101C3000003010B10120009001E0002000900098D9
:101C4000012846D123484030006840F080502149A7
:101C5000403108602048006840F440401E49086058
:101C60001C48083000681B490831086008460068B5
:101C700040F4004008600846006840F4A050086046
:101C80001648091F0860081F006840F08070091F8F
:101C9000086000BF0F48006800F000700028F9D00D
:101CA00040F205700E4908600A480830006820F0CC
:101CB00003000849083108600846006840F0020047
:101CC000086000BF03480830006800F00C000828D6
:101CD000F8D10CBD00380240007000401954400794
:101CE000003C02400CE0002006490860C820FFF7D5
:101CF0009FF901200449C1F89802C820FFF798F91C
:101D0000F1E70000988242420080424210B5FEF79F
:101D1000EFFCFFF7C9F9FEF7FDFC10BD10B5154843
:101D2000006840F47000134908601348006840F0F0
:101D300001001149086000200F49083108600E4871
:101D400000680E4908400C4908600D48091D0860EC
:101D5000081F006820F48020091F08600020064941
:101D60000C310860FFF748FF4FF0006001498039EF
:101D7000086010BD88ED00E000380240FFFFF6FE6D
:101D8000103000240D49098801F02001A1B1032180
:101D90000B4A117009498988C8B20A49097841B9C2
:101DA00009490A780978491C074B19700749885472
:101DB00002E00121034A1170704700000010014049
:101DC0000200002000000020010000206C00002024
:101DD0002DE9F0412DED028B07464548006840F0A3
:101DE00010004349086042482038006840F0100065
:101DF0003F49203908600846006820F0100008605C
:101E00003C48808940F00C003A4988810846008AA5
:101E100020F440500882380100EE100AB8EE400A63
:101E2000DFED350A80EE801AB0EE418ABCEEC80ABA
:101E300010EE100A86B200EE106AB8EE400A38EED4
:101E4000400AF0EE408AB3EE000A28EE800ABCEEAB
:101E5000C00A10EE100A40EA061008810846808980
:101E600040F0200088810846008820F0200008808B
:101E700005200246214B19684FF6FF031940204BFD
:101E80000B4343EA02211D4B196000BF002211469B
:101E9000FEF7EDFB2524002211460520FEF7E7FBA7
:101EA0000546002C08DA2807020E14480C3004F00E
:101EB0000F01091F425403E02807010E1148015584
:101EC00000BF252000F01F0201219140420992002D
:101ED00002F1E022C2F8001100BF0648808940F4F8
:101EE000005004498881BDEC028BBDE8F081000000
:101EF0004438024000100140A037A04C0CED00E037
:101F00000000FA0500E400E000BFFEE700BFFEE7C6
:101F100001464FF0FF30704700BF044A128802F0BC
:101F20008002002AF9D0014B9880704700100140D0
:101F300070B5FEF7BCFBFEF739FB00F025F84FF457
:101F4000E130FFF745FFA8210520FFF7C7FCFEF7AA
:101F50008FF9C4B20523084A00210848FEF760FD46
:101F60000546294606A0FEF7E9F92046FEF784F962
:101F7000FEF730FD002070BDA8130020E51C00080E
:101F800025640D0A000000001A48006840F00100B6
:101F9000184908601848006820F470101649086055
:101FA0000846006840F4201008600846406820F4A5
:101FB000007048600846806820F440208860084629
:101FC000806840F4802088600846C06820F4401093
:101FD000C8600846C06840F48010C8600846406A7F
:101FE00020F47F6104484162406A40F4EE61024897
:101FF0004162704730380240000002404FF04070AC
:10200000E1EE100A70470000010002000100030029
:1020100001000200010004000100020001000300B1
:1020200001000200010005000100020001000300A0
:102030000100020001000400010002000100030091
:10204000010002000100060001000200010003007F
:102050000100020001000400010002000100030071
:102060000100020001000500010002000100030060
:102070000100020001000400010002000100030051
:10208000010002000100070001000200010003003E
:102090000100020001000400010002000100030031
:1020A0000100020001000500010002000100030020
:1020B0000100020001000400010002000100030011
:1020C00001000200010006000100020001000300FF
:1020D00001000200010004000100020001000300F1
:1020E00001000200010005000100020001000300E0
:1020F00001000200010004000100020001000300D1
:10210000010002000100000028210008000000205A
:102110006C000000C4010008942100086C0000203D
:10212000A4430000E00100080000000000000000DF
:10213000000000000000000000000000000000009F
:10214000000000000000000000000000000000008F
:10215000000000000000000000000000000000007F
:10216000000000000000000000000000000000006F
:10217000000000000000000000000000000000005F
:10218000000000000000000000000000000000004F
:04219000000000004B
:040000050800018965
:00000001FF
