:020000040800F2
:10000000000400209D010008A5010008A7010008C8
:10001000A9010008AB010008AD01000800000000C4
:10002000000000000000000000000000AF01000818
:10003000B101000800000000B3010008B50100088C
:10004000B7010008B7010008B7010008B7010008B0
:10005000B7010008B7010008B7010008B7010008A0
:10006000B7010008B7010008B7010008B701000890
:10007000B7010008B7010008B7010008B701000880
:10008000B7010008B7010008B7010008B701000870
:10009000B7010008B7010008B7010008B701000860
:1000A000B7010008B7010008B7010008B701000850
:1000B000B7010008B7010008B7010008B701000840
:1000C000B7010008B7010008B7010008B701000830
:1000D000B7010008B7010008B7010008B701000820
:1000E000B7010008B7010008B7010008B701000810
:1000F000B7010008B7010008B7010008B701000800
:10010000B7010008B7010008B7010008B7010008EF
:10011000B7010008B7010008B7010008B7010008DF
:10012000B7010008B7010008B7010008B7010008CF
:10013000B7010008B7010008B7010008B7010008BF
:10014000B7010008B7010008B7010008B7010008AF
:10015000B7010008B7010008B7010008B70100089F
:10016000B7010008B7010008B7010008B70100088F
:10017000B7010008B7010008B7010008B70100087F
:10018000B7010008B7010008DFF80CD000F018F83C
:1001900000480047E10400080004002006488047AA
:1001A00006480047FEE7FEE7FEE7FEE7FEE7FEE75C
:1001B000FEE7FEE7FEE7FEE71104000889010008FC
:1001C000064C074D06E0E06840F0010394E80700A4
:1001D00098471034AC42F6D3FFF7DAFFFC0400086E
:1001E0000C0500081448006840F02000124908601F
:1001F0001248006820F00F001049086008460068A7
:1002000040F005000860081D006820F00F00091D7F
:100210000860081D006820F00F00091D0860081D17
:10022000006820F00F00091D0860012004490860E3
:100230000449C1F88002704730380240001402407F
:10024000848242420080424210B500200A49086080
:1002500001200A49C1F8840207490860052000F01E
:100260001AF900200549C1F88402052000F013F9AD
:1002700000200149086010BD808242420080424255
:1002800010B50020094908600949C1F8840201201D
:1002900006490860052000F0FEF801200449C1F875
:1002A0008402052000F0F7F810BD00008082424271
:1002B0000080424270B505460020124908600724BC
:1002C00019E000200F4908600120A040284018B123
:1002D0000120091D086003E000200A49091D08608B
:1002E000052000F0D8F8012006490860052000F03C
:1002F000D2F8601E44B2002CE3DA00200149086005
:1003000070BD0000808242420CB500200190009038
:100310003448006840F480303249086000BF3148FA
:10032000006800F4003000900198401C0190009893
:1003300018B90198B0F5A04FF1D12A48006800F42F
:10034000003010B10120009001E0002000900098E2
:10035000012846D123484030006840F080502149B0
:10036000403108602048006840F440401E49086061
:100370001C48083000681B490831086008460068BE
:1003800040F4004008600846006840F4A05008604F
:100390001648091F0860081F006840F08070091F98
:1003A000086000BF0F48006800F000700028F9D016
:1003B00040F205700E4908600A480830006820F0D5
:1003C00003000849083108600846006840F0020050
:1003D000086000BF03480830006800F00C000828DF
:1003E000F8D10CBD0038024000700040195440079D
:1003F000003C02404FF0E020006920F004004FF084
:10040000E02108610846006920F002000861704799
:1004100010B51548006840F470001349086013488F
:10042000006840F001001149086000200F490831C0
:1004300008600E4800680E4908400C4908600D48E5
:10044000091D0860081F006820F48020091F08604B
:10045000002006490C310860FFF756FF4FF000609E
:1004600001498039086010BD88ED00E00038024085
:10047000FFFFF6FE1030002402E008C8121F08C17A
:10048000002AFAD170477047002001E001C1121F15
:10049000002AFBD170474FF0E022126922F00102DE
:1004A0004FF0E0231A61C0EBC00202EB42025A6136
:1004B00000229A611A46126942F001021A6100BFD5
:1004C0004FF0E022116901F48032002AF8D04FF099
:1004D000E022126922F001024FF0E0231A61704716
:1004E000FFF788FFFFF77EFEFFF7AEFEFF20FFF766
:1004F000E1FEFFF7C5FE00BFFEE700000C050008A7
:0C05000000000020000400008804000837
:040000050800018965
:00000001FF
