:020000040800F2
:10000000603000200D020008490400083F0300088A
:100010004504000839030008A90500080000000095
:100020000000000000000000000000004D04000877
:100030003D030008000000004B0400083D050008D7
:1000400027020008270200082702000827020008EC
:1000500027020008270200082702000827020008DC
:1000600027020008270200082702000827020008CC
:1000700027020008270200082702000827020008BC
:1000800027020008270200082702000827020008AC
:10009000270200082702000827020008270200089C
:1000A000270200082702000827020008270200088C
:1000B000270200082702000827020008270200087C
:1000C000270200082702000827020008270200086C
:1000D000270200082702000827020008270200085C
:1000E000270200082702000827020008270200084C
:1000F000270200082702000827020008270200083C
:10010000270200082702000827020008270200082B
:10011000270200082702000827020008270200081B
:10012000270200082702000827020008270200080B
:1001300027020008270200082702000827020008FB
:1001400027020008270200082702000827020008EB
:1001500027020008270200082702000827020008DB
:1001600027020008270200082702000827020008CB
:1001700027020008270200082702000827020008BB
:10018000270200082702000800F002F800F02EF80D
:100190000AA090E8000C82448344AAF10107DA45E2
:1001A00001D100F023F8AFF2090EBAE80F0013F006
:1001B000010F18BFFB1A43F0010318471404000095
:1001C000240400000023002400250026103A28BF44
:1001D00078C1FBD8520728BF30C148BF0B607047B9
:1001E0001FB500F0EFF91FBD10B510BD00F031F8DC
:1001F0001146FFF7F5FF00F0D9F900F04FF803B40E
:10020000FFF7F2FF03BC00F053F8000009488047F5
:1002100009480047FEE7FEE7FEE7FEE7FEE7FEE7E8
:10022000FEE7FEE7FEE7FEE704480549054A064B00
:1002300070470000410500088901000860000020A7
:100240006030002060200020602000207047704750
:100250007047754600F028F8AE46050069465346DB
:1002600020F00700854618B020B5FFF7DDFFBDE898
:1002700020404FF000064FF000074FF000084FF00D
:10028000000B21F00701AC46ACE8C009ACE8C0099E
:10029000ACE8C009ACE8C0098D4670470446AFF32E
:1002A00000802046FFF7ABFF0048704700000020A9
:1002B00001491820ABBEFEE726000200704700008F
:1002C0001548006840F02000134908601348006892
:1002D00020F44030114908600846006840F480303E
:1002E0000860081D006820F48070091D0860081D62
:1002F000006820F44030091D0860081D006820F4E3
:100300004030091D086005481430006820F48070F2
:10031000024914310860704730380240001402402E
:10032000012803D10121034A116002E00021014AA2
:1003300011607047A002414200BFFEE7704700BF56
:10034000FEE700002148006840F024001F490860D3
:100350001F4800681F4908401D490860084600689A
:100360001D4908431A490860081D006820F4C86048
:10037000091D0860081D0068164908401449083125
:100380000860081D00681349084011490C310860D5
:100390001248006820F00300104908600846006811
:1003A00040F001000860081D006820F00100091DF0
:1003B0000860081D006820F00300091D0860081D82
:1003C000006820F00300091D0860704730380240C3
:1003D00000140240FFCFC3FF0010140000080240C9
:1003E00000F0010119B10121144A116002E000215D
:1003F000124A116000F0020121B101210F4A0C32B2
:10040000116003E000210D4A0C32116000F004017C
:1004100021B10121094A1032116003E00021074A8D
:100420001032116000F0010119B10121044A11607C
:1004300002E00021024A11607047000098824242A7
:100440008002414200BFFEE77047704770470000DE
:100450000CB50020019000903448006840F48030D2
:100460003249086000BF3148006800F40030009055
:100470000198401C0190009818B90198B0F5A04F60
:10048000F1D12A48006800F4003010B1012000903A
:1004900001E0002000900098012846D12348403018
:1004A000006840F0805021494031086020480068D1
:1004B00040F440401E4908601C48083000681B4951
:1004C000083108600846006840F4004008600846AB
:1004D000006840F4A05008601648091F0860081F13
:1004E000006840F08070091F086000BF0F48006876
:1004F00000F000700028F9D040F205700E49086045
:100500000A480830006820F00300084908310860F4
:100510000846006840F00200086000BF0348083049
:10052000006800F00C000828F8D10CBD003802402B
:100530000070004019544007003C02407047000022
:1005400010B51548006840F470001349086013485E
:10055000006840F001001149086000200F4908318F
:1005600008600E4800680E4908400C4908600D48B4
:10057000091D0860081F006820F48020091F08601A
:10058000002006490C310860FFF762FF4FF0006061
:1005900001498039086010BD88ED00E00038024054
:1005A000FFFFF6FE1030002400BFFEE7FFF7CAFE93
:1005B000FFF786FE0F20FFF713FF0020FFF7B0FEC6
:1005C00000BFFEE74FF04070E1EE100A70470000F8
:1005D000E00500080000002060300000C4010008B1
:040000050800018965
:00000001FF
