:020000040800F2
:10000000101200209D010008A50B0008C909000876
:10001000A10B000871070008AD0F000800000000E8
:10002000000000000000000000000000270C000895
:10003000A507000800000000250C0008B501000815
:10004000B7010008B7010008B7010008B7010008B0
:10005000B7010008B7010008A9070008B7010008A8
:10006000D90700080908000839080008B701000886
:10007000B7010008B7010008B7010008B701000880
:10008000B7010008B7010008B7010008B701000870
:10009000B7010008B7010008B7010008B701000860
:1000A000B7010008B7010008B7010008B701000850
:1000B000B7010008B7010008B7010008B701000840
:1000C000B7010008B7010008B7010008B701000830
:1000D000B7010008690F0008B7010008B701000860
:1000E000B7010008B7010008B7010008B701000810
:1000F000B7010008B7010008B7010008B701000800
:10010000B7010008B7010008B7010008B7010008EF
:10011000B7010008B7010008B50D0008B7010008D5
:10012000B7010008B7010008B7010008B7010008CF
:10013000B7010008B7010008B7010008B7010008BF
:10014000B7010008B7010008B7010008B7010008AF
:10015000B7010008B7010008B7010008B70100089F
:10016000B7010008B7010008B7010008B70100088F
:10017000B7010008B7010008B7010008B70100087F
:10018000B7010008B7010008DFF80CD000F0DEFA74
:10019000004800474112000810120020064880471E
:1001A00006480047FEE7FEE7FEE7FEE7FEE7FEE75C
:1001B000FEE7FEE7FEE7FEE74D0D000889010008B7
:1001C000D2B201E000F8012B491EFBD27047002299
:1001D000F6E710B513460A4604461946FFF7F0FF46
:1001E000204610BD10B5002200E0521C835C8C5CE0
:1001F000A34201D1002BF8D1D8B2E1B2401A10BD10
:100200002DE9FE4F804681EA0300C00F0C460090A6
:1002100021F0004123F00045B8EB0200A94105D2CE
:100220004046214690461C460B46024623F00040BD
:10023000104347D0270DC7F30A00C3F30A510290B9
:10024000401A019040286BDAC3F3130040F4801B7E
:100250000098924620B10023D2EB030A63EB0B0B0C
:1002600001985946C0F14002504600F0AAF90646EE
:100270000D4650465946019A00F0C2F910EB0800AD
:100280006141002487EA115284EAE7731A4340D09F
:10029000009A62B3019A012A4FEA075215DC001B4B
:1002A00061EB02014FF0004202EA0752CDE9004241
:1002B000001C41F5801132462B4600F0F9F903B0DD
:1002C000BDE8F08F40462146F9E7001B61EB0201D3
:1002D000001C41F5801300185B412018A2F500179F
:1002E00047EB030140EAD570B6196D4111E06D0886
:1002F0004FEA360645EAC0754FEA0752001B61EB2C
:100300000201001C41F5801149084FEA3000001934
:10031000514132462B4603B0BDE8F04F00F0B9B969
:100320000098012240000023D0EB020263EBE0734F
:10033000009821464FEAE074B8EB000061EB04013D
:10034000E9E783F000435BE781F0004158E72DE9DE
:10035000FE4F81EA030404F0004421F000410094C0
:100360004FF0000B23F0004350EA01045ED052EA44
:1003700003045BD0C3F30A54C1F30A552C44A4F21E
:10038000F3340194A0FB0254C1F3130141F4801132
:10039000C3F3130343F4801301FB024400FB034E39
:1003A000840A970A44EA815447EA8357A4FB076802
:1003B00002958D0A05FB07854FEA932C04FB0C542C
:1003C0002705029D4FEA065847EA1637B5EB0805A0
:1003D0006EEB070C870E920E47EA811742EA8312F2
:1003E000A7FB0201B6EB0B0164EB00042B0D43EA03
:1003F0000C335E1844EB1C50DA465146E7FB020111
:10040000C5F313044FEA0B3343EA14534FEA0432A3
:10041000019C43EA0603A4F10C040294009CCDE97C
:1004200000B400F045F903B0BDE8F08F00200146AC
:10043000F9E72DE9F04D81EA030404F0004B21F0C7
:10044000004514464FF0000A23F0004150EA05022F
:1004500020D054EA01021DD0C5F30A570246C5F365
:100460001303C1F31300C1F30A5640F4801543F49B
:100470008013A7EB0608101BD64608F2FD3873EB75
:10048000050002D308F1010801E092185B41B8F1C0
:10049000000F03DA00200146BDE8F08D00204FF484
:1004A0008011064684460EE0171B73EB050705D343
:1004B000121B63EB050306434CEA010C49084FEAA3
:1004C000300092185B4150EA0107EDD152EA030077
:1004D00012D082EA040083EA0501084305D0101B0C
:1004E000AB4106D20122002306E000224FF0004378
:1004F00002E06FF0010253101AEB06004CEB0851BA
:1005000010EB0A0041EB0B01BDE8F04D00F0C1B863
:100510000EB5C10F80EAE0700844CA07002140F21E
:1005200033438DE80E000A460B4600F0C1F803B0D5
:1005300000BDC1F30A5210B5C1F3130140F2FF33FD
:1005400041F480119A4201DA002010BD40F2334399
:100550009A42A2F2334203DC524200F041F810BD4D
:10056000904010BD00F0004230F000400AD0C10DB4
:1005700001F56071C0F3160042EA0151C20840075C
:100580001143704700200146704701F0004330B42A
:1005900021F0004150EA010206D00A0DA2F5607276
:1005A000C1F31301002A02DC30BC00207047440F65
:1005B00044EAC104C100E01830BC00EBC25000F0B6
:1005C00031B8202A04DB203A00FA02F100207047FB
:1005D0009140C2F1200320FA03F319439040704781
:1005E000202A04DB203A21FA02F00021704721FA88
:1005F00002F3D040C2F120029140084319467047EF
:10060000202A06DBCB17203A41FA02F043EAE073D6
:1006100006E041FA02F3D040C2F1200291400843C3
:10062000194670470029A8BF7047401C490008BF01
:1006300020F00100704710B4B0FA80FC00FA0CF012
:1006400050EA010404BF10BC704749B1CCF120044A
:1006500021FA04F411FA0CF118BF012121430843D7
:10066000A3EB0C01CB1D4FEA00614FEA102042BF03
:10067000002010BC704700EBC35010440029A4BFF9
:1006800010BC7047401C490008BF20F0010010BC9E
:10069000704710B5141E73F1000408DA401C41F1D4
:1006A000000192185B411A4301D120F0010010BDF6
:1006B0002DE9F04D92469B4611B1B1FA81F202E06C
:1006C000B0FA80F220329046FFF77BFF04460F46D7
:1006D00040EA0A0041EA0B0153465A46084313D048
:1006E000114653EA010019D0C8F140025046FFF705
:1006F00077FF05460E46504659464246FFF761FFD2
:10070000084305D0012004E020463946BDE8F08DBD
:100710000020054346EAE0762C4337430A986305F8
:10072000E40AA0EB08000022FD0A44EA47540A301C
:1007300002D500200146E9E7010510196941DDE90C
:10074000084500196941BDE8F04DA2E7064C074D88
:1007500006E0E06840F0010394E807009847103491
:10076000AC42F6D3FFF714FD84120008A41200086F
:1007700000BFFEE7002100E0491C084A128802F091
:10078000800212B9064A9142F6D3044A128802F056
:1007900080020AB1014A90807047000000100140B9
:1007A00040900200704700000948006800F0010016
:1007B00068B10748006840F0010005490860054835
:1007C000006808B9012000E0002002490860704775
:1007D000143C0140988242420948006800F004003D
:1007E00068B10748006840F0040005490860054802
:1007F000006808B9012000E0002002490860704745
:10080000143C0140A48242420948006800F00800FC
:1008100068B10748006840F00800054908600548CD
:10082000006808B9012000E0002002490860704714
:10083000143C0140A88242420948006800F01000C0
:1008400068B10748006840F0100005490860054895
:10085000006808B9012000E00020024908607047E4
:10086000143C01408002414210B55048006840F0FD
:1008700011004E4908604E48006820F003004C49C2
:1008800008600846C06820F00300C8604948006856
:1008900020F47C70474908600846C06820F47C70EA
:1008A000C86042481430006840F480403F49143129
:1008B0000860414800684FF60F7188433E49086060
:1008C0000846006840F4884008603B480838C06823
:1008D00020F0040138480838C160C06840F00401C5
:1008E00035480838C1603548006840F01D0033497C
:1008F0000860081D006820F01D00091D0860081D23
:10090000006840F01D00091D08602C481030006888
:1009100020F01D00294910310860081D006840F0D2
:100920001D00091D086005200246254B19684FF679
:10093000FF031940234B0B4343EA0221204B19606C
:1009400000BF0022114600F039F904462146062076
:1009500000F054F900221146052000F02FF904465A
:100960002146082000F04AF900221146052000F037
:1009700025F904462146092000F040F900221146DD
:10098000052000F01BF9044621460A2000F036F944
:10099000062000F008F9082000F005F9092000F011
:1009A00002F90A2000F0FFF810BD000030380240C4
:1009B000000002400010024008380140003C0140A5
:1009C0000CED00E00000FA0500BFFEE721480068DA
:1009D00040F024001F4908601F4800681F49084074
:1009E0001D490860084600681D4908431A49086007
:1009F000081D006820F4C860091D0860081D006813
:100A000016490840144908310860081D0068134958
:100A1000084011490C3108601248006820F00300BA
:100A2000104908600846006840F001000860081D91
:100A3000006820F00100091D0860081D006820F012
:100A40000300091D0860081D006820F00300091D4F
:100A5000086070473038024000140240FFCFC3FFE7
:100A6000001014000008024000F0F00161BB00F02B
:100A7000010119B100212D4A116002E001212B4A28
:100A8000116000F0020121B10021284A0C321160EE
:100A900003E00121254A0C32116000F0040121B16C
:100AA0000021224A1032116003E001211F4A103256
:100AB000116000F0080119B100211D4A116033E0F6
:100AC00001211B4A11602FE000F0100139B11749D4
:100AD000096809B9012100E00021144A116000F001
:100AE000200149B111490C31096809B9012100E01F
:100AF00000210E4A0C32116000F0400149B10B494F
:100B00001031096809B9012100E00021074A1032BB
:100B1000116000F0800139B10549096809B9012166
:100B200000E00021024A11607047000098824242B2
:100B30008002414210B51348007808B300201149E3
:100B40000870114800F0E6F80A20FFF713FE0FA125
:100B50000D48FFF747FB18B90F20FFF785FF07E0A7
:100B60000CA10948FFF73EFB10B90020FFF77CFFFE
:100B70000A4801880448FFF72AFB0020074908803B
:100B800010BD000008000020100000204C45445F0C
:100B90004F4E00004C45445F4F4646000A0000207F
:100BA00000BFFEE7704700F01F020121914042099B
:100BB000920002F1E022C2F800117047F0B503463E
:100BC0000C4603F00701C1F10700042801D90420F5
:100BD00001E0C1F107000646081D072801D20020E8
:100BE00000E0C81E05460120B040401E2040A8403D
:100BF0000127AF407F1E17403843F0BD10B50028D5
:100C000007DA0A07140E054A00F00F031B1FD4541D
:100C100003E00A07130E024A135410BD18ED00E05A
:100C200000E400E0704770470CB500200190009090
:100C30003448006840F480303249086000BF3148D1
:100C4000006800F4003000900198401C019000986A
:100C500018B90198B0F5A04FF1D12A48006800F406
:100C6000003010B10120009001E0002000900098B9
:100C7000012846D123484030006840F08050214987
:100C8000403108602048006840F440401E49086038
:100C90001C48083000681B49083108600846006895
:100CA00040F4004008600846006840F4A050086026
:100CB0001648091F0860081F006840F08070091F6F
:100CC000086000BF0F48006800F000700028F9D0ED
:100CD00040F205700E4908600A480830006820F0AC
:100CE00003000849083108600846006840F0020027
:100CF000086000BF03480830006800F00C000828B6
:100D0000F8D10CBD00380240007000401954400773
:100D1000003C024010B50346002404E0185DFFF7D4
:100D200029FD601C84B2185D0028F7D110BD4FF07A
:100D3000E020006920F004004FF0E021086108463F
:100D4000006920F0020008617047000010B51548E6
:100D5000006840F47000134908601348006840F0D0
:100D600001001149086000200F49083108600E4851
:100D700000680E4908400C4908600D48091D0860CC
:100D8000081F006820F48020091F08600020064921
:100D90000C310860FFF748FF4FF0006001498039CF
:100DA000086010BD88ED00E000380240FFFFF6FE4D
:100DB000103000240C48008A00F0010090B10A486D
:100DC000008A20F00100084908820848007848B1EC
:100DD00006480078401EC0B20449087010B90120CE
:100DE000034908707047000000100040090000200F
:100DF000080000202DE9F04F04460D460026554816
:100E0000006840F0100053490860524820380068DC
:100E100040F010004F49203908600846006820F073
:100E2000100008604C48008840F080004A49088063
:100E30000846008820F0080008800846008820F056
:100E4000040008800846008820F002000880084658
:100E5000808940F00100888108460485C562002031
:100E600048620846808A40F00100888201E0701CD8
:100E700086B23948008A00F0010010B9B6F5D26F89
:100E8000F5DB3548008A20F001003349088205204F
:100E90000246324B19684FF6FF031940304B0B43A3
:100EA00043EA02212D4B196000BF3620052200279E
:100EB000BC461346C3F1070ABAF1040F02D94FF03A
:100EC000040A01E0C3F1070AD14603F1040ABAF1AA
:100ED000070F02D24FF0000A01E0A3F1030AD04647
:100EE0004FF0010A0AFA09FAAAF1010A0AEA070A06
:100EF0000AFA08FA4FF0010B0BFA08FBABF1010BF1
:100F00000BEA0C0B4AEA0B0100BF002808DA0A07BB
:100F1000170E124A0C3200F00F031B1FD75403E0C8
:100F20000A07130E0F4A135400BF362000F01F02A9
:100F3000012191404209920002F1E022C2F8001121
:100F400000BF0548008840F0010003490880BDE863
:100F5000F08F000040380240001000400CED00E02F
:100F60000000FA0500E400E00B49098801F02001C7
:100F700081B10321094A117007498988C8B208491B
:100F8000097839B907490A880988491C054B19802D
:100F900005498854704700000010014009000020F6
:100FA000080000200A0000201000002000BFFEE71B
:100FB0002DE9F0472DED088B8C48006840F00100CA
:100FC0008A4908608A4800688A4908408849086058
:100FD0000846006840F4201008600846406820F485
:100FE000007048600846806820F440208860084609
:100FF000806840F4802088600846C06820F4402063
:10100000C8600846C06820F44010C8600846C06840
:1010100040F48010C8600846406A20F47F6174483C
:101020004162406A40F4EE61714841626F48143099
:10103000006840F010006D49143108606B480C38AE
:10104000006840F0100069490C39086008460068E3
:1010500020F0100008606848808920F4104066493C
:1010600088810846808940F00C0088810846008A03
:1010700020F44050088289890222A2EBD131C800B5
:10108000FFF746FA41EC1B0B9FED5C0B53EC102B6A
:10109000FFF75DF941EC1A0B53EC1A2B9FED590B3E
:1010A00051EC100BFFF7C5F941EC190BFFF76DFA86
:1010B00008EE100ABCEEC80A10EE100A4FF6FF71D7
:1010C00001EA00142646E01704EB1070001100EE50
:1010D000100AB8EEC00A38EE400AF3EE000A20EE1D
:1010E000200A10EE101A0846FFF73CFA41EC1A0BE2
:1010F0009FED460B53EC102BFFF782F841EC190BD8
:10110000FFF717FA85B244EA05003B490881084613
:10111000808940F0200088810846008820F0200067
:101120000880052002463B4B19684FF6FF03194023
:10113000394B0B4343EA0221364B196000BF25208F
:101140000522002637461346C3F10709B9F1040FFB
:1011500002D94FF0040901E0C3F10709C84603F1C1
:101160000409B9F1070F02D24FF0000901E0A3F121
:101170000309CC464FF0010909FA08F9A9F1010960
:1011800009EA060909FA0CF94FF0010A0AFA0CFA01
:10119000AAF1010A0AEA070A49EA0A0100BF00287F
:1011A00008DA0A07160E1B4A0C3200F00F031B1F49
:1011B000D65403E00A07130E184A135400BF252023
:1011C00000F01F02012191404209920002F1E02249
:1011D000C2F8001100BF0848808940F40050064959
:1011E0008881BDEC088BBDE8F087000030380240F4
:1011F00000000240FEFFF3FF00100140000000006D
:1012000000C0C24000000000F4069441000000004D
:101210000000E03F0CED00E00000FA0500E400E013
:1012200002E008C8121F08C1002AFAD170477047AF
:10123000002001E001C1121F002AFBD1704700000D
:101240000EB50DA207CA8DE80700FFF7BFFBFFF739
:10125000AFFEFFF76CFD642142F2D000FFF7CAFD3C
:101260000F20FFF701FC6846FFF754FDFFF7FCFA7B
:1012700001E0FFF75FFCFCE74655776569313233E3
:10128000200A0000A4120008000000201000000046
:1012900020120008B4120008100000200012000004
:1012A00030120008140000001400000000000000CC
:0412B000000000003A
:040000050800018965
:00000001FF
