:020000040800F2
:10000000101200209D010008290C0008610A000858
:10001000250C000809080008610E00080000000017
:10002000000000000000000000000000AB0C000811
:100030003D08000800000000A90C0008B30D0008EE
:10004000B7010008B7010008B7010008B7010008B0
:10005000B7010008B701000841080008B70100080F
:1000600071080008A1080008D1080008B7010008BD
:10007000B7010008B7010008B7010008B701000880
:10008000B7010008B7010008B7010008B701000870
:10009000B7010008B7010008B7010008B701000860
:1000A000B7010008B7010008B7010008B701000850
:1000B000B7010008B7010008B7010008B701000840
:1000C000B7010008B7010008B7010008B701000830
:1000D000B70100081D0E0008B7010008B7010008AD
:1000E000B7010008B7010008B7010008B701000810
:1000F000B7010008B7010008B7010008B701000800
:10010000B7010008B7010008B7010008B7010008EF
:10011000B7010008B7010008B7010008B7010008DF
:10012000B7010008B7010008B7010008B7010008CF
:10013000B7010008B7010008B7010008B7010008BF
:10014000B7010008B7010008B7010008B7010008AF
:10015000B7010008B7010008B7010008B70100089F
:10016000B7010008B7010008B7010008B70100088F
:10017000B7010008B7010008B7010008B70100087F
:10018000B7010008B7010008DFF80CD000F0DEFA74
:100190000048004759110008101200200648804707
:1001A00006480047FEE7FEE7FEE7FEE7FEE7FEE75C
:1001B000FEE7FEE7FEE7FEE7B50D0008890100084F
:1001C000D2B201E000F8012B491EFBD27047002299
:1001D000F6E710B513460A4604461946FFF7F0FF46
:1001E000204610BD10B5002200E0521C835C8C5CE0
:1001F000A34201D1002BF8D1D8B2E1B2401A10BD10
:100200002DE9FE4F804681EA0300C00F0C460090A6
:1002100021F0004123F00045B8EB0200A94105D2CE
:100220004046214690461C460B46024623F00040BD
:10023000104347D0270DC7F30A00C3F30A510290B9
:10024000401A019040286BDAC3F3130040F4801B7E
:100250000098924620B10023D2EB030A63EB0B0B0C
:1002600001985946C0F14002504600F0AAF90646EE
:100270000D4650465946019A00F0C2F910EB0800AD
:100280006141002487EA115284EAE7731A4340D09F
:10029000009A62B3019A012A4FEA075215DC001B4B
:1002A00061EB02014FF0004202EA0752CDE9004241
:1002B000001C41F5801132462B4600F0F9F903B0DD
:1002C000BDE8F08F40462146F9E7001B61EB0201D3
:1002D000001C41F5801300185B412018A2F500179F
:1002E00047EB030140EAD570B6196D4111E06D0886
:1002F0004FEA360645EAC0754FEA0752001B61EB2C
:100300000201001C41F5801149084FEA3000001934
:10031000514132462B4603B0BDE8F04F00F0B9B969
:100320000098012240000023D0EB020263EBE0734F
:10033000009821464FEAE074B8EB000061EB04013D
:10034000E9E783F000435BE781F0004158E72DE9DE
:10035000FE4F81EA030404F0004421F000410094C0
:100360004FF0000B23F0004350EA01045ED052EA44
:1003700003045BD0C3F30A54C1F30A552C44A4F21E
:10038000F3340194A0FB0254C1F3130141F4801132
:10039000C3F3130343F4801301FB024400FB034E39
:1003A000840A970A44EA815447EA8357A4FB076802
:1003B00002958D0A05FB07854FEA932C04FB0C542C
:1003C0002705029D4FEA065847EA1637B5EB0805A0
:1003D0006EEB070C870E920E47EA811742EA8312F2
:1003E000A7FB0201B6EB0B0164EB00042B0D43EA03
:1003F0000C335E1844EB1C50DA465146E7FB020111
:10040000C5F313044FEA0B3343EA14534FEA0432A3
:10041000019C43EA0603A4F10C040294009CCDE97C
:1004200000B400F045F903B0BDE8F08F00200146AC
:10043000F9E72DE9F04D81EA030404F0004B21F0C7
:10044000004514464FF0000A23F0004150EA05022F
:1004500020D054EA01021DD0C5F30A570246C5F365
:100460001303C1F31300C1F30A5640F4801543F49B
:100470008013A7EB0608101BD64608F2FD3873EB75
:10048000050002D308F1010801E092185B41B8F1C0
:10049000000F03DA00200146BDE8F08D00204FF484
:1004A0008011064684460EE0171B73EB050705D343
:1004B000121B63EB050306434CEA010C49084FEAA3
:1004C000300092185B4150EA0107EDD152EA030077
:1004D00012D082EA040083EA0501084305D0101B0C
:1004E000AB4106D20122002306E000224FF0004378
:1004F00002E06FF0010253101AEB06004CEB0851BA
:1005000010EB0A0041EB0B01BDE8F04D00F0C1B863
:100510000EB5C10F80EAE0700844CA07002140F21E
:1005200033438DE80E000A460B4600F0C1F803B0D5
:1005300000BDC1F30A5210B5C1F3130140F2FF33FD
:1005400041F480119A4201DA002010BD40F2334399
:100550009A42A2F2334203DC524200F041F810BD4D
:10056000904010BD00F0004230F000400AD0C10DB4
:1005700001F56071C0F3160042EA0151C20840075C
:100580001143704700200146704701F0004330B42A
:1005900021F0004150EA010206D00A0DA2F5607276
:1005A000C1F31301002A02DC30BC00207047440F65
:1005B00044EAC104C100E01830BC00EBC25000F0B6
:1005C00031B8202A04DB203A00FA02F100207047FB
:1005D0009140C2F1200320FA03F319439040704781
:1005E000202A04DB203A21FA02F00021704721FA88
:1005F00002F3D040C2F120029140084319467047EF
:10060000202A06DBCB17203A41FA02F043EAE073D6
:1006100006E041FA02F3D040C2F1200291400843C3
:10062000194670470029A8BF7047401C490008BF01
:1006300020F00100704710B4B0FA80FC00FA0CF012
:1006400050EA010404BF10BC704749B1CCF120044A
:1006500021FA04F411FA0CF118BF012121430843D7
:10066000A3EB0C01CB1D4FEA00614FEA102042BF03
:10067000002010BC704700EBC35010440029A4BFF9
:1006800010BC7047401C490008BF20F0010010BC9E
:10069000704710B5141E73F1000408DA401C41F1D4
:1006A000000192185B411A4301D120F0010010BDF6
:1006B0002DE9F04D92469B4611B1B1FA81F202E06C
:1006C000B0FA80F220329046FFF77BFF04460F46D7
:1006D00040EA0A0041EA0B0153465A46084313D048
:1006E000114653EA010019D0C8F140025046FFF705
:1006F00077FF05460E46504659464246FFF761FFD2
:10070000084305D0012004E020463946BDE8F08DBD
:100710000020054346EAE0762C4337430A986305F8
:10072000E40AA0EB08000022FD0A44EA47540A301C
:1007300002D500200146E9E7010510196941DDE90C
:10074000084500196941BDE8F04DA2E7064C074D88
:1007500006E0E06840F0010394E807009847103491
:10076000AC42F6D3FFF714FDC0110008E0110008F9
:1007700009E001785A2905DC0178412902DB01787A
:1007800020310170401C01780029F2D1704700002F
:100790001548006840F020001349086013480068BD
:1007A00020F44030114908600846006840F4803069
:1007B0000860081D006820F48070091D0860081D8D
:1007C000006820F44030091D0860081D006820F40E
:1007D0004030091D086005481430006820F480701E
:1007E000024914310860704730380240001402405A
:1007F00018B10121034A116002E00021014A116091
:1008000070470000A082424200BFFEE7002100E0E6
:10081000491C084A128802F0800212B9064A914225
:10082000F6D3044A128802F080020AB1014A90808D
:100830007047000000100140409002007047000027
:100840000948006800F0010068B10748006840F0FE
:100850000100054908600548006808B9012000E06A
:100860000020024908607047143C014098824242CF
:100870000948006800F0040068B10748006840F0CB
:100880000400054908600548006808B9012000E037
:100890000020024908607047143C0140A482424293
:1008A0000948006800F0080068B10748006840F097
:1008B0000800054908600548006808B9012000E003
:1008C0000020024908607047143C0140A88242425F
:1008D0000948006800F0100068B10748006840F05F
:1008E0001000054908600548006808B9012000E0CB
:1008F0000020024908607047143C014080024142D8
:1009000010B55048006840F011004E4908604E484C
:10091000006820F003004C4908600846C06820F0D9
:100920000300C8604948006820F47C7047490860AB
:100930000846C06820F47C70C860424814300068E3
:1009400040F480403F4914310860414800684FF648
:100950000F7188433E4908600846006840F48840AB
:1009600008603B480838C06820F00401384808385F
:10097000C160C06840F0040135480838C16035489E
:10098000006840F01D0033490860081D006820F031
:100990001D00091D0860081D006840F01D00091DAC
:1009A00008602C481030006820F01D0029491031E3
:1009B0000860081D006840F01D00091D0860052042
:1009C0000246254B19684FF6FF031940234B0B4392
:1009D00043EA0221204B196000BF0022114600F0BB
:1009E0002FF904462146062000F04AF9002211465C
:1009F000052000F025F904462146082000F040F9C2
:100A000000221146052000F01BF90446214609206A
:100A100000F036F900221146052000F011F90446D5
:100A200021460A2000F02CF9062000F0FEF80820EC
:100A300000F0FBF8092000F0F8F80A2000F0F5F8C3
:100A400010BD00003038024000000240001002409B
:100A500008380140003C01400CED00E00000FA05C0
:100A600000BFFEE71148006840F001000F49086030
:100A70000F48006820F003000D4908600846C06870
:100A800020F00300C8600948006840F010000749E2
:100A900008600848006820F47C7006490860084631
:100AA000C06820F47C70C860704700003038024095
:100AB00000000240001002402148006840F024007D
:100AC0001F4908601F4800681F4908401D49086009
:100AD000084600681D4908431A490860081D006857
:100AE00020F4C860091D0860081D00681649084008
:100AF000144908310860081D00681349084011496D
:100B00000C3108601248006820F0030010490860AA
:100B10000846006840F001000860081D006820F0E9
:100B20000100091D0860081D006820F00300091D70
:100B30000860081D006820F00300091D0860704768
:100B40003038024000140240FFCFC3FF00101400F1
:100B50000008024000F0010119B10021144A11609F
:100B600002E00121124A116000F0020121B10021CE
:100B70000F4A0C32116003E001210D4A0C32116062
:100B800000F0040121B10021094A1032116003E094
:100B90000121074A1032116000F0080119B100214B
:100BA000044A116002E00121024A1160704700000E
:100BB000988242428002414210B51348007808B33F
:100BC000002011490870114800F0E6F80A20FFF7EC
:100BD0001DFE0FA10D48FFF705FB18B90120FFF717
:100BE000B9FF07E00CA10948FFF7FCFA10B9002093
:100BF000FFF7B0FF0A4801880448FFF7E8FA002031
:100C00000749088010BD00000800002010000020E7
:100C10004C45445F4F4E00004C45445F4F464600F4
:100C20000A00002000BFFEE7704700F01F0201210C
:100C300091404209920002F1E022C2F8001170478F
:100C4000F0B503460C4603F00701C1F10700042884
:100C500001D9042001E0C1F107000646081D07285C
:100C600001D2002000E0C81E05460120B040401E11
:100C70002040A8400127AF407F1E17403843F0BDF9
:100C800010B5002807DA0A07140E054A00F00F0312
:100C90001B1FD45403E00A07130E024A135410BD5D
:100CA00018ED00E000E400E0704770470CB500204C
:100CB000019000903448006840F480303249086068
:100CC00000BF3148006800F4003000900198401CDB
:100CD0000190009818B90198B0F5A04FF1D12A48B9
:100CE000006800F4003010B10120009001E0002005
:100CF00000900098012846D123484030006840F019
:100D000080502149403108602048006840F440404C
:100D10001E4908601C48083000681B4908310860FB
:100D20000846006840F4004008600846006840F447
:100D3000A05008601648091F0860081F006840F0AE
:100D40008070091F086000BF0F48006800F0007045
:100D50000028F9D040F205700E4908600A480830B2
:100D6000006820F003000849083108600846006860
:100D700040F00200086000BF03480830006800F03F
:100D80000C000828F8D10CBD00380240007000406B
:100D900019544007003C024010B50346002404E00B
:100DA000185DFFF733FD601C84B2185D0028F7D191
:100DB00010BD704710B51548006840F47000134925
:100DC00008601348006840F00100114908600020E5
:100DD0000F49083108600E4800680E4908400C4968
:100DE00008600D48091D0860081F006820F4802075
:100DF000091F0860002006490C310860FFF756FF04
:100E00004FF0006001498039086010BD88ED00E0B6
:100E100000380240FFFFF6FE103000240C4909881C
:100E200001F0200199B10A498988C8B224280BD061
:100E30000849097841B908490A880988491C064BBC
:100E400019800649885402E00121024A1170704756
:100E500000100140080000200A00002010000020BF
:100E600000BFFEE72DE9F0472DED088B8C480068A8
:100E700040F001008A4908608A4800688A490840B1
:100E8000884908600846006840F420100860084659
:100E9000406820F4007048600846806820F44020D4
:100EA00088600846806840F4802088600846C068F2
:100EB00020F44020C8600846C06820F44010C86094
:100EC0000846C06840F48010C8600846406A20F4B4
:100ED0007F6174484162406A40F4EE61714841624A
:100EE0006F481430006840F010006D4914310860FC
:100EF0006B480C38006840F0100069490C390860F4
:100F00000846006820F0100008606848808920F4D6
:100F10001040664988810846808940F00C0088812D
:100F20000846008A20F44050088289890222A2EBF8
:100F3000D131C800FFF7ECFA41EC1B0B9FED5C0BC5
:100F400053EC102BFFF703FA41EC1A0B53EC1A2B5E
:100F50009FED590B51EC100BFFF76BFA41EC190B9D
:100F6000FFF713FB08EE100ABCEEC80A10EE100AD9
:100F70004FF6FF7101EA00142646E01704EB1070EB
:100F8000001100EE100AB8EEC00A38EE400AF3EE87
:100F9000000A20EE200A10EE101A0846FFF7E2FAC7
:100FA00041EC1A0B9FED460B53EC102BFFF728F981
:100FB00041EC190BFFF7BDFA85B244EA05003B4945
:100FC00008810846808940F0200088810846008812
:100FD00020F020000880052002463B4B19684FF6A0
:100FE000FF031940394B0B4343EA0221364B19608A
:100FF00000BF25200522002637461346C3F1070906
:10100000B9F1040F02D94FF0040901E0C3F1070957
:10101000C84603F10409B9F1070F02D24FF00009E5
:1010200001E0A3F10309CC464FF0010909FA08F9E0
:10103000A9F1010909EA060909FA0CF94FF0010AB8
:101040000AFA0CFAAAF1010A0AEA070A49EA0A01AD
:1010500000BF002808DA0A07160E1B4A0C3200F0FF
:101060000F031B1FD65403E00A07130E184A13542C
:1010700000BF252000F01F0201219140420992008B
:1010800002F1E022C2F8001100BF0848808940F454
:10109000005006498881BDEC088BBDE8F087000050
:1010A0003038024000000240FEFFF3FF0010014014
:1010B0000000000000C0C24000000000F40694419F
:1010C000000000000000E03F0CED00E00000FA0529
:1010D00000E400E002E008C8121F08C1002AFAD1AB
:1010E00070477047002001E001C1121F002AFBD1A8
:1010F000704701464FF0E022126922F001024FF0E2
:10110000E0231A611A46126922F480321A6145F20C
:1011100008224A435A611A46126942F001021A61D2
:1011200000BF4FF0E022106900F48032002AF8D0AE
:101130004FF0E022126922F001024FF0E0231A6121
:10114000704710B5044603E00120FFF7D2FF641E8C
:10115000002CF9D110BD00000EB516A207CA8DE80B
:101160000700FFF7A9FCFFF713FBFFF77BFCFFF776
:1011700079FE0020FFF7EEFC0020FFF739FB684600
:10118000FFF7F6FA6846FFF707FEFFF7B9FB0FE037
:10119000FFF712FD0020FFF7DDFC4FF4FA70FFF7B8
:1011A000D0FF0F20FFF7D6FC4FF4FA70FFF7C9FF0E
:1011B000EEE700004655776569313233200A0000BA
:1011C000E01100080000002010000000D41000080A
:1011D000F01100081000002000120000E4100008C8
:1011E00014000000140000000000000000000000D7
:040000050800018965
:00000001FF
