:020000040800F2
:10000000480C0020AD010008B5010008B701000848
:10001000B9010008BB010008BD0100080000000094
:10002000000000000000000000000000BF01000808
:10003000C101000800000000C3010008C50100085C
:10004000C7010008C7010008C7010008C701000870
:10005000C7010008C7010008C7010008C701000860
:10006000C7010008C7010008C7010008C701000850
:10007000C7010008C7010008C7010008C701000840
:10008000C7010008C7010008910A0008000000002D
:10009000000000000000000000000000C701000890
:1000A00035300008C7010008C7010008C701000873
:1000B0007530000895300008C7010008C701000826
:1000C000C7010008C7010008C7010008C7010008F0
:1000D000C7010008DD320008C70100080000000069
:1000E000C7010008C7010008C701000800000000A0
:1000F000000000000000000000000000C701000830
:1001000000000000C7010008C7010008C70100087F
:1001100000000000000000000000000000000000DF
:10012000C7010008C7010008C7010008C70100088F
:10013000C7010008000000000000000000000000EF
:10014000000000000000000000000000C7010008DF
:10015000C7010008C7010008C7010008C70100085F
:10016000C7010008C70100080000000000000000EF
:10017000000000000000000000000000000000007F
:1001800000000000C701000800000000000000009F
:10019000C7010008C7010008DFF80CD000F0DEFB43
:1001A0000048004749410008480C002006488047A5
:1001B00006480047FEE7FEE7FEE7FEE7FEE7FEE74C
:1001C000FEE7FEE7FEE7FEE7CD2F000899010008F5
:1001D000D2B201E000F8012B491EFBD27047002289
:1001E000F6E710B513460A4604461946FFF7F0FF36
:1001F000204610BD2DE9FE4F804681EA0300C00F66
:100200000C46009021F0004123F00045B8EB0200BD
:10021000A94105D24046214690461C460B4602465F
:1002200023F00040104347D0270DC7F30A00C3F363
:100230000A510290401A019040286BDAC3F3130070
:1002400040F4801B0098924620B10023D2EB030AB1
:1002500063EB0B0B01985946C0F14002504600F089
:1002600036FA06460D4650465946019A00F04EFAB7
:1002700010EB08006141002487EA115284EAE77319
:100280001A4340D0009A62B3019A012A4FEA0752FA
:1002900015DC001B61EB02014FF0004202EA07523D
:1002A000CDE90042001C41F5801132462B4600F09A
:1002B00085FA03B0BDE8F08F40462146F9E7001B00
:1002C00061EB0201001C41F5801300185B4120180E
:1002D000A2F5001747EB030140EAD570B6196D414E
:1002E00011E06D084FEA360645EAC0754FEA07523D
:1002F000001B61EB0201001C41F5801149084FEA27
:1003000030000019514132462B4603B0BDE8F04F92
:1003100000F045BA0098012240000023D0EB020211
:1003200063EBE073009821464FEAE074B8EB0000FD
:1003300061EB0401E9E783F000435BE781F00041F2
:1003400058E72DE9FE4F81EA030404F0004421F050
:10035000004100944FF0000B23F0004350EA0104E9
:100360005ED052EA03045BD0C3F30A54C1F30A55CA
:100370002C44A4F2F3340194A0FB0254C1F3130102
:1003800041F48011C3F3130343F4801301FB0244CF
:1003900000FB034E840A970A44EA815447EA8357D4
:1003A000A4FB076802958D0A05FB07854FEA932C8D
:1003B00004FB0C542705029D4FEA065847EA1637FE
:1003C000B5EB08056EEB070C870E920E47EA811716
:1003D00042EA8312A7FB0201B6EB0B0164EB0004B7
:1003E0002B0D43EA0C335E1844EB1C50DA465146A1
:1003F000E7FB0201C5F313044FEA0B3343EA14533E
:100400004FEA0432019C43EA0603A4F10C0402946F
:10041000009CCDE900B400F0D1F903B0BDE8F08F45
:1004200000200146F9E72DE9F04D81EA030404F0CC
:10043000004B21F0004514464FF0000A23F0004124
:1004400050EA050220D054EA01021DD0C5F30A5734
:100450000246C5F31303C1F31300C1F30A5640F477
:10046000801543F48013A7EB0608101BD64608F24C
:10047000FD3873EB050002D308F1010801E0921882
:100480005B41B8F1000F03DA00200146BDE8F08DB2
:1004900000204FF48011064684460EE0171B73EBD4
:1004A000050705D3121B63EB050306434CEA010C59
:1004B00049084FEA300092185B4150EA0107EDD13C
:1004C00052EA030012D082EA040083EA05010843DD
:1004D00005D0101BAB4106D20122002306E000220A
:1004E0004FF0004302E06FF0010253101AEB0600D8
:1004F0004CEB085110EB0A0041EB0B01BDE8F04D4D
:1005000000F04DB90EB5C10F80EAE0700844CA078B
:10051000002140F233438DE80E000A460B4600F0FE
:100520004DF903B000BD0EB540F2334102910021F8
:10053000CDE900110A460B4600F040F903B000BDBA
:1005400070B5C1F30A5201F000450024C1F3130154
:1005500040F2FF3341F480119A4201DA002070BD6D
:1005600040F233439A42A2F2334203DC524200F09B
:10057000BDF800E090402C43F1D0404270BDC1F383
:100580000A5210B5C1F3130140F2FF3341F4801158
:100590009A4201DA002010BD40F233439A42A2F29F
:1005A000334203DC524200F0A1F810BD904010BD70
:1005B00000F0004230F000400AD0C10D01F560713A
:1005C000C0F3160042EA0151C208400711437047C8
:1005D000002001467047000030B5041E71F1000490
:1005E00004DB4FF00044404264EB0101141E73F140
:1005F000000405DB1C464FF00043524263EB04034A
:100600008B4208BF824230BD01F0004330B421F07C
:10061000004150EA010206D00A0DA2F56072C1F352
:100620001301002A02DC30BC00207047440F44EA6A
:10063000C104C100E01830BC00EBC25000F078B833
:1006400030B50B46014600202022012409E021FAA2
:1006500002F59D4205D303FA02F5491B04FA02F59F
:100660002844151EA2F10102F1DC30BD2DE9F05F36
:100670000546002092469B46884606468146402411
:100680001BE0284641464746224600F02FF85346D5
:100690005A46C01A914110D311461846224600F01E
:1006A00016F82D1A67EB01084F462246012000215B
:1006B00000F00DF817EB00094E41201EA4F10104D3
:1006C000DFDC484631462A464346BDE8F09F202AF3
:1006D00004DB203A00FA02F1002070479140C2F199
:1006E000200320FA03F3194390407047202A04DBCB
:1006F000203A21FA02F00021704721FA02F3D0409B
:10070000C2F120029140084319467047202A06DBB7
:10071000CB17203A41FA02F043EAE07306E041FACF
:1007200002F3D040C2F120029140084319467047BD
:100730000029A8BF7047401C490008BF20F00100F5
:10074000704710B4B0FA80FC00FA0CF050EA0104D3
:1007500004BF10BC704749B1CCF1200421FA04F465
:1007600011FA0CF118BF012121430843A3EB0C013E
:10077000CB1D4FEA00614FEA102042BF002010BCA1
:10078000704700EBC35010440029A4BF10BC704751
:10079000401C490008BF20F0010010BC704710B594
:1007A000141E73F1000408DA401C41F10001921894
:1007B0005B411A4301D120F0010010BD2DE9F04D3D
:1007C00092469B4611B1B1FA81F202E0B0FA80F292
:1007D00020329046FFF77BFF04460F4640EA0A00AE
:1007E00041EA0B0153465A46084313D0114653EAD7
:1007F000010019D0C8F140025046FFF777FF0546C7
:100800000E46504659464246FFF761FF084305D061
:10081000012004E020463946BDE8F08D0020054364
:1008200046EAE0762C4337430A986305E40AA0EBD6
:1008300008000022FD0A44EA47540A3002D500208D
:100840000146E9E7010510196941DDE9084500198C
:100850006941BDE8F04DA2E72DE9F04D00231A46AD
:100860001B1A8A4103DB00200146BDE8F08DC1F36D
:100870000A52C1F3130141F480154FF0000BD10768
:1008800002D100186D41521E0027044640F2FF11AC
:10089000384601EB620A3E468046024600204FF48D
:1008A0008011FFF723FFC2197141BB1846EB01000D
:1008B000B4EB030C75EB000C04D3E41A65EB0005F4
:1008C00017460E46241908F101006D418046342870
:1008D000E3DDF91946EB0600091BA84103D24FF0EE
:1008E000FF32134601E0002213461BEB070046EBE4
:1008F0000A51BDE8F04DFFF752BFC1F30A52C1F3F0
:10090000130140F2FF3341F480119A4202DA0020D1
:100910000146704740F233439A42A2F2334202DC6E
:100920005242FFF7E3BEFFF7D2BE000030B5041E0F
:1009300071F1000404DB4FF00044404264EB01011C
:10094000141E73F1000405DB1C464FF000435242B5
:1009500063EB0403994208BF904230BD064C074D3B
:1009600006E0E06840F0010394E80700984710347F
:10097000AC42F6D3FFF714FC6C7300088C730008CC
:1009800070B58C1810F8015B15F0070301D110F851
:10099000013B2A1106D110F8012B03E010F8016B7E
:1009A00001F8016B5B1EF9D12B0705D40023521E01
:1009B0000DD401F8013BFAE710F8013BCB1A921C69
:1009C00003E013F8015B01F8015B521EF9D5A14267
:1009D000D8D3002070BD000010B52948006840F051
:1009E00001002749086026481430006840F48070F0
:1009F0002349143108602348006840F0C0002149B1
:100A000008602148006840F440302049C1F80403E0
:100A10000846C06A20F47000C8620846406B20F0A7
:100A20001F0048630846406B40F0030048630846D7
:100A3000006940F4006008610846806820F040507A
:100A400088600846806840F080508860084680686A
:100A500020F0706088600846806840F00060886020
:100A60000846406840F020004860122001F089F9F3
:100A70000648806840F001000449886010BD00000D
:100A800030380240000002400423014000200140B1
:100A9000304AD26C90B2304A12785206120E2E4B67
:100AA0001A701A4652785206120E5A701A469278E6
:100AB0005206120E9A701A46D2785206120EDA7048
:100AC00040F68B62904205DD1A46127842F0010230
:100AD0001A702AE040F2C96290420ADD40F6BA027A
:100AE000904206DA1C4A527842F001021A4B5A70C0
:100AF0001BE040F2D94290420ADD40F24D62904242
:100B000006DA154A927842F00102134B9A700CE013
:100B1000B0F53A7F09DD40F29B42904205DA0E4A79
:100B2000D27842F001020C4BDA7000210FE00A4A41
:100B3000525CFF2A03D10122084B5A5405E0064AB1
:100B4000525C12B90022054B5A544A1CD1B20429F6
:100B5000EDDB704700200140300000202A0000201B
:100B600010B50246002041B102F00F03140904EB56
:100B7000840403EB4403D8B20AE00A2392FBF3F4A3
:100B800003FB14230A2492FBF4F443EA0413D8B2BF
:100B900010BD00000348006820F0400001490860D3
:100BA00000207047140402400448006900F480707B
:100BB00008B1012070470020FCE70000000002405F
:100BC0001CB51148006840F001000F490860084654
:100BD000006840F001000860012000210B460A4631
:100BE000CDE900100102094800F0ECF901200321D1
:100BF00000230246CDE900104021054800F0E2F94B
:100C0000FFF7C8FF00201CBD303802400000024042
:100C1000000402401CB5FFF7C7FF012809D10020DE
:100C200009493F237F22CDE90010014601F0AFFBC7
:100C300008E0002005493F237F22CDE9001001464E
:100C400001F0A5FB1CBD00006A6B00086A6F00087C
:100C500030B502464FF6FF7009E0C4B2157884EA59
:100C60000503521C054C34F8134084EA10200C0094
:100C7000A1F10105A9B2F0D130BD000092680008D1
:100C80002DE9F041B0EE403A0746884644463D46DD
:100C9000984890ED000AB5EEC00AF1EE10FA02D1C4
:100CA00080ED003A1FE19348D0ED000AB0EE430A10
:100CB00000F03EF90028F5D08F4800688F490860A1
:100CC00068782978C1EB011100EB8100C0EB0010BE
:100CD000A97801EB80004FF47A714843E97801EB81
:100CE000810100EB81068648066000688349096837
:100CF000401AFA287EDB834890ED000A8248D0ED46
:100D0000000A30EE600A8148D0ED000AB4EEE00A35
:100D1000F1EE10FAEEDB7A480068774908607C480B
:100D20000078401C7A4908707A480068401C79496C
:100D3000086079480068301AB0F5FA6F7ED308462B
:100D40000068012806D194ED000AF1EE040AC0EE15
:100D5000202A3FE06F480068022806D194ED000A7F
:100D6000F1EE000AC0EE202A34E06A480068032849
:100D700006D194ED000AF0EE080AC0EE202A29E020
:100D800064480068042806D194ED000AF0EE000AD9
:100D9000C0EE202A1EE05F480068052806D194EDC9
:100DA000000ADFED5E0AC0EE202A13E05948006811
:100DB000072802D1D4ED002A0CE056480068082824
:100DC00006D394ED000ADFED550A60EE202A01E01B
:100DD000DFED532A4F4890ED000AB8EE400A20EEAE
:100DE000220AF0EE000AC0EE204A90ED000AB8EEAA
:100DF000400A00E04DE020EE224AD4ED010AB0EEB8
:100E0000001A80EE810AF1EE020A64EEA00A20EEDA
:100E1000200ADFED440AC0EE203A434890ED000A74
:100E200030EE230A80ED000A90ED010A30EE040A4C
:100E300080ED010A38480660002000E001E03549F5
:100E400008603348007805280CDA2D4800682B49E3
:100E50000968401A40F6B831884203DB00202C496B
:100E6000087016E02A480078052812DB244800683C
:100E700022490968401A40F6B831884209DC2A48FC
:100E80008068234909780844274988600020204960
:100E900008701B48006819490968401AFA2822DBC3
:100EA000184890ED000A1848D0ED000A30EE600AAC
:100EB0001E48D0ED000AB4EEE00AF1EE10FA12DBA3
:100EC0000F4800680C4908600E48D0ED000A0E4833
:100ED00090ED001A70EEC10AB0EE600A01F0FAFA65
:100EE0000A4880ED000A034880ED003A0E48BDE84C
:100EF000F0810000B4060020A4060020A80600200F
:100F0000AC0600209C060020A0060020BC060020A5
:100F1000C0060020C8060020C40600209A99993F08
:100F2000000000000000E1443C080020B80600205A
:100F30001E4800781E490870B4EEE00AF1EE10FA7F
:100F400008DB0120194908701A480068401C19493B
:100F5000086008E017480068174908600020154934
:100F60000860124908701148007890B9104800785C
:100F700078B11148006802280BDBB3EE041AF4EED6
:100F8000C10AF1EE10FA04DB0C48C0ED000A0120A2
:100F900070470748007838B90448007820B10848FD
:100FA000C0ED000A0020F3E70020F1E78C060020E6
:100FB0009806002090060020940600209C06002041
:100FC000A00600202DE9F0470C46DDE90867002166
:100FD00000258C4600BF60E04FF0010808FA01F5DB
:100FE00004EA050CAC4557D1D0F800804FEA410A1D
:100FF0004FF0030909FA0AF928EA0908C0F8008045
:10100000D0F800804FEA410902FA09F948EA0908D4
:10101000C0F80080012A01D0022A27D1D0F8088028
:101020004FEA410A4FF0030909FA0AF928EA0908C8
:10103000C0F80880D0F808804FEA410906FA09F99B
:1010400048EA0908C0F80880D0F804904FF0010879
:1010500008FA01F829EA0809C0F80490D0F80480D9
:1010600003FA01F948EA0908C0F80480D0F80C80B6
:101070004FEA410A4FF0030909FA0AF928EA090878
:10108000C0F80C80D0F80C804FEA410907FA09F942
:1010900048EA0908C0F80C80491C10299CD3BDE817
:1010A000F08700000F48006840F001000D4908601B
:1010B0000D48006820F03C000B49086008460068B5
:1010C00040F0140008600846406820F004004860C2
:1010D0000846406840F0020048600220088304206F
:1010E00008837047303802400000024070B5054662
:1010F000002402201A490883002619E00A2002F081
:10110000DBFF0420164908836006040E08460069C8
:1011100000F0020010B144F0010401E024F00104E9
:101120000A2002F0C9FF04200D494883701CC6B292
:10113000082EE3DB1DB902200949488302E00220A2
:10114000074908830A2002F0B7FF042004490883F6
:101150000A2002F0B1FF042001494883204670BDF7
:101160000000024010B5052002F0A6FF0420084947
:10117000088302200883052002F09EFF0220044914
:101180004883052002F098FF04200149488310BDE0
:101190000000024010B5022008494883052002F0F3
:1011A0008BFF042005490883052002F085FF0220FB
:1011B00002490883052002F07FFF10BD00000240B5
:1011C00070B50546022600241AE0C4F1070101208B
:1011D0008840284018B102201749088302E0022005
:1011E000154948830A2002F067FF0420124908834A
:1011F0000A2002F061FF04200F494883601CC4B23A
:10120000082CE2DB02200C4908830A2002F054FF7C
:101210000420094908830846006900F0020008B16B
:10122000012600E000260A2002F046FF04200249C1
:101230004883304670BD00000000024070B50125B3
:10124000002404E00948005D09490855641C182C75
:10125000F8D30849064800F08FF9054606480068AB
:1012600040F4004004490860284670BDAA6A00089E
:10127000D8070020F00700201404024070B50125B3
:10128000002404E00948005D09490855641C182C35
:10129000F8D30849064800F06FF90546064800688B
:1012A00040F4004004490860284670BDF26A000816
:1012B000D8070020F00700201404024010B50024D5
:1012C00004E00648005D06490855641C182CF8D354
:1012D0000449034800F050F910BD0000C26A00083C
:1012E000D8070020F007002010B5002404E00648CD
:1012F000005D06490855641C182CF8D304490348BE
:1013000000F03AF910BD00000A6B0008D807002071
:10131000F0070020024600210AB900207047002192
:1013200004E00448405C5054481CC1B21829F8DB62
:101330001820F3E7F007002000B58FB02D480078A3
:1013400040B100F0DDF841F2883002F0ABFE002041
:1013500028490870FFF7B2FF09A8FFF7DBFF9DF8E7
:101360002B0048B900204FF4016323A201460090EE
:10137000012001F058F83BE09DF82B00012828D10E
:1013800000204FF401631EA20146009001F04BF8CB
:101390009DF82F309DF82E201BA101A802F01CF90A
:1013A00000204FF4016301AA01460090022001F0E1
:1013B0003AF8FFF743FF202101A8FEF710FF18219C
:1013C00009A8FEF70CFF01200A49087000200FB0A1
:1013D00000BD9DF82B0002280AD1FFF72FFF002047
:1013E0004FF401630FA201460090012001F01BF8A9
:1013F0000120ECE77D06002074657374696E670058
:101400007375636365737300486967683A253033A1
:101410006420202020202020204C6F773A25303374
:10142000640000006661696C2020200000B52DED8D
:10143000028B8DB02DA0006803902D48007840B13C
:1014400000F07CF84FF47A7002F02CFE002028495E
:1014500008709DF82300B8B3FFF710FF9DF8230034
:10146000FFF761F841EC180B04A8B0EE480AF0EE63
:10147000680A00F0D9FC0020032303AA5021009041
:10148000184600F06BFF00204FF4016304AA5A21B4
:101490000090052000F0C7FF182107A8FEF79FFE67
:1014A00018211448FEF79BFE18211348FEF797FEFB
:1014B000002004900590069001200D49087000203E
:1014C0000DB0BDEC028B00BDFFE7FFF70DFF07A8D5
:1014D000FFF720FF002009493D231A46CDE90010FF
:1014E0000821084600F053FF0120E9E71415000029
:1014F0007C060020D8070020F007002004610008C7
:1015000010B50A48006820F400400849086000242B
:1015100004E00748005D07490855641C182CF8D3FF
:101520000549044800F028F810BD000014040240EA
:10153000926A0008D8070020F007002010B50A487A
:10154000006820F4004008490860002404E00748CF
:10155000005D07490855641C182CF8D30549044858
:1015600000F00AF810BD000014040240DA6A000816
:10157000D8070020F00700202DE9F04104460D4671
:1015800001271221201DFFF763FB0646E682182281
:101590002146662000F033F8052002F03FFD1822B6
:1015A0002946662000F00BF8EE8A1221281DFFF76D
:1015B0004FFBB04200D000273846BDE8F0812DE94E
:1015C000F04106460C461746FFF7CCFD012101EB22
:1015D0004601C8B2FFF7F4FD002505E00020FFF743
:1015E00085FD6055681CC5B2172DF7DB0120FFF79C
:1015F0007DFDE075FFF7CEFD0020BDE8F0812DE90F
:10160000F04105460E461746FFF7ACFD6906080E89
:10161000FFF7D6FD002404E0305DFFF7D1FD601C2C
:10162000C4B2182CF8DBFFF7B5FD0020BDE8F0814F
:1016300010B51548006840F00400134908601348CD
:10164000006820F04060114908600846006840F0DA
:1016500080600860081D006820F40050091D0860C3
:10166000081D006820F04060091D086008460068F9
:1016700040F000600860FFF715FD0548006820F4A1
:1016800000400349086010BD3038024000080240A5
:10169000140402401748006840F002001549086031
:1016A0001548006820F44030134908600846006877
:1016B00040F480300860081D006840F48070091D07
:1016C0000860081F006820F44020091F08600846D1
:1016D000006840F480200860081D006840F4007035
:1016E000091D08600120054908600549C1F8A002EC
:1016F000704700003038024000040240A48240429B
:101700000080404270B50546002401201C49086055
:1017100000261AE0052002F0CFFC01201849091F1D
:1017200008606006040E1748D0F8240210B144F097
:10173000010401E024F00104052002F0BDFC0020BA
:101740000F49091F0860701CC6B2082EE2DB1DB9E4
:1017500000200B49086002E00120094908600520CB
:1017600002F0AAFC01200649091F0860052002F0CA
:10177000A3FC00200349C1F8A002204670BD000070
:10178000A48240420080404210B5052002F094FC43
:1017900001200A4908600A49C1F8A402052002F0A4
:1017A0008BFC00200549091D0860052002F084FC1F
:1017B00000200349C1F8A00210BD0000A0824042F1
:1017C0000080404210B5002009490860052002F061
:1017D00073FC01200749C1F8A002052002F06CFC4F
:1017E000012003490860052002F066FC10BD0000DE
:1017F000A48240420080404270B505460226002483
:101800001CE0C4F1070101208840284018B10120E4
:101810001849086002E0002016490860052002F01F
:101820004BFC01201349091F0860052002F044FC0D
:1018300000201149C1F8A002601CC4B2082CE0DBF2
:1018400001200C490860052002F036FC01200A49FD
:10185000C1F8A00207488038006808B1012600E0FE
:101860000026052002F028FC00200249091F08601C
:10187000304670BDA48240420080404210B50B4803
:10188000006840F00100094908600948006820F03C
:101890000300074908600846C06820F00300C860DC
:1018A000FFF79AF801F026FC10BD00003038024026
:1018B00000000240002112E00B48405C0B4A525CE1
:1018C00090420AD00948405C074A50540748405C9F
:1018D000012802D1481CC0B27047481CC1B205297A
:1018E000EADB0020F8E70000340000202A00002096
:1018F0000F48006840F001000D4908600D4800687D
:1019000020F440400B4908600846006840F48040DD
:1019100008600846C06820F4C070C8600846406887
:1019200020F08000486000200349086070470000F4
:1019300030380240000002409C0240422DE9FC4148
:1019400004460D4616466B4606223B21682000F0F1
:101950006CF80746BFB99DF801009DF8001040EAF9
:10196000012000B220809DF803009DF8021040EA9B
:10197000012000B228809DF805009DF8041040EA7F
:10198000012000B230803846BDE8FC8110B58021CE
:101990006B2000F0D9F9642002F040FB00216B209D
:1019A00000F0D2F9002000F06FF8322000F091F83A
:1019B0000021382000F0C8F900216A2000F0C4F9A5
:1019C0000021232000F0C0F98021372000F0BCF96D
:1019D000752000F013F80446682C0BD101216B2010
:1019E00000F0B2F907216C2000F0AEF9322000F0CF
:1019F00070F801E0012010BD0020FCE770B504463E
:101A0000FFF7C2FED020FFF7F7FE2046FFF7F4FEF7
:101A1000FFF7BAFED120FFF7EFFE0120FFF772FEBD
:101A20000546FFF7CFFE284670BD2DE9F04106467A
:101A30000F4614461D46FFF7A7FE002141EA460166
:101A4000C8B2FFF7D9FE3846FFF7D6FEFFF79CFE77
:101A5000012101EB4601C8B2FFF7CEFE0DE0012CDB
:101A600004D10120FFF74EFE287003E00020FFF7AD
:101A700049FE2870601EC4B26D1C002CEFD1FFF728
:101A8000A1FE0020BDE8F08110B50446E006010E7D
:101A90001C2000F059F910BD70B504460025BC2C7F
:101AA00001DB012510E0622C01DB02250CE02A2C71
:101AB00001DB032508E0142C01DB042504E00A2CDB
:101AC00001DB052500E0062529461A2000F03CF937
:101AD00070BD70B50446B4F57A7F01DD4FF47A74B9
:101AE000042C00DA04244FF47A7090FBF4F0401ECA
:101AF000C5B22946192000F027F90546264604EB11
:101B0000D671C1F34F00FFF7C7FF70BD30B52DEDA3
:101B1000028B95B002AC7748007860B1FFF736FFD2
:101B200001F026FD04AA05A906A8FFF707FF00207B
:101B300070490870D7E004AA05A906A8FFF7FEFEC1
:101B4000684600F019FEDDE90001CDE902016A48AE
:101B500080786A490978884207D067488078674961
:101B6000087000206449C87004E06348C078401CD5
:101B70006149C87020796049087060794870A0791F
:101B80008870BDF9180000EE100AB8EEC00A9FED8B
:101B90005C1AC0EE010AB2EE040A20EE800A8DED56
:101BA000070ABDF9140000EE100AF8EEC00A9FED16
:101BB000541A80EE810AF2EE040A20EE200A8DED1E
:101BC000080ABDF9100000EE100AF8EEC00A9FEDF9
:101BD0004C1A80EE810AF2EE040A20EE200A8DED06
:101BE000090A14A801F0BAFC05462A46424907A88A
:101BF00002F042FB4349D0E900238068C1E9002399
:101C00008860084640A182680AA801F0E5FC00202F
:101C10004FF4C1630AAA0A21009000F004FC39487D
:101C200090ED000A10EE101A0846FEF7C1FC41ECD8
:101C3000180B53EC182B37A10AA801F0CDFC00209B
:101C40004FF4C1630AAA0A210090022000F0EBFBC6
:101C50002C4890ED010A10EE101A0846FEF7A8FC79
:101C600041EC180B53EC182B2EA10AA801F0B4FC80
:101C700000204FF4C1630AAA0A210090042000F05A
:101C8000D2FB9DED090AB5EEC00AF1EE10FA14DBA5
:101C90009DED090ABCEEC00A10EE100AC2B224A1E2
:101CA0000AA801F099FC00204FF4C1630AAA0A2196
:101CB0000090062000F0B7FB15E09DED090AB1EE9B
:101CC000400ABCEEC00A10EE100AC2B21CA10AA85B
:101CD00001F082FC00204FF4C1630AAA0A2100909F
:101CE000062000F0A0FB142002F098F915B0BDEC1E
:101CF000028B30BD840600207F0600208306002072
:101D00000000804608080020537465703A2530357D
:101D1000642000006B616C3A252E3166204B414CEB
:101D2000000000006469733A252E3166204D0000E2
:101D30005A3A25303264206D2F735E320000000065
:101D40005A3A2D253032640070B505460C46FFF72F
:101D50001BFDD020FFF750FD2846FFF74DFD204624
:101D6000FFF74AFDFFF72EFD002070BD00F01F02B7
:101D7000012191404209920002F1E022C2F80011D3
:101D8000704700F01F02012191404209920002F1C8
:101D9000E022C2F800117047F0B503460C4603F08C
:101DA0000701C1F10700042801D9042001E0C1F1B5
:101DB00007000646081D072801D2002000E0C81EC3
:101DC00005460120B040401E2040A8400127AF40FA
:101DD0007F1E17403843F0BD10B5002807DA0A0708
:101DE000140E054A00F00F031B1FD45403E00A072A
:101DF000130E024A135410BD18ED00E000E400E099
:101E0000014601F00702064B18684FF6FF03184021
:101E1000044B034343EA0220014B18607047000063
:101E20000CED00E00000FA0570B52DED068BB0EE6C
:101E3000408AF0EE608A044651EC180BFEF780FBF6
:101E40000546FEF75FFB41EC1A0B53EC182BFEF72F
:101E500075FA41EC190B9FED0D0B53EC102BFEF7AF
:101E6000BBFB0AD251EC180BFEF76AFB05462A466B
:101E700008A1204601F0B0FB05E053EC182B06A1A9
:101E8000204601F0A9FBBDEC068B70BDF168E3882C
:101E9000B5F8E43E25640000252E326600000000FF
:101EA00070B5002419E004F1B001C8B2002100F0BF
:101EB000FBFA0021022000F0F7FA0021102000F0C8
:101EC000F3FA002505E00121002000F0EDFA681C7E
:101ED000C5B2802DF7DB601CC4B2082CE3DB70BDFB
:101EE00010B501F013F800F083F801203F490860B5
:101EF00000F0DEF80021AE2000F0D6FA002102202A
:101F000000F0D2FA0021102000F0CEFA002140208B
:101F100000F0CAFA0021812000F0C6FA0021CF208B
:101F200000F0C2FA0021A12000F0BEFA0021C82072
:101F300000F0BAFA0021A62000F0B6FA0021A8208D
:101F400000F0B2FA00213F2000F0AEFA0021D320C9
:101F500000F0AAFA0021084600F0A6FA0021D520D8
:101F600000F0A2FA0021802000F09EFA0021D92082
:101F700000F09AFA0021F12000F096FA0021DA2010
:101F800000F092FA0021122000F08EFA0021DB20EE
:101F900000F08AFA0021402000F086FA002120207B
:101FA00000F082FA0021022000F07EFA00218D204C
:101FB00000F07AFA0021142000F076FA0021A42023
:101FC00000F072FA0021A62000F06EFA0021AF2086
:101FD00000F06AFA0021AF2000F066FAFFF760FF18
:101FE0000021084600F07CF810BD00009C824042B1
:101FF0002C48006840F003002A4908602A4800681D
:1020000020F04060284908600846006840F0806081
:102010000860081D006820F40050091D0860081DB4
:10202000006820F04060091D08600846006840F024
:10203000006008601D48006820F040401B490860AF
:102040000846006840F0804008600846406820F478
:10205000004048600846806820F04040886008469C
:10206000806840F0004088600F48006820F44040DD
:102070000D4908600846006840F480400860081D6B
:10208000006820F08000091D0860081D006820F429
:102090004040091D08600846006840F400400860A0
:1020A0007047000030380240000402400000024047
:1020B00010B5012008490860642001F0AFFF00203E
:1020C0000649C1F8B402642001F0A8FF01200249CA
:1020D0000860002010BD0000B482404200804042F1
:1020E00070B505460C46A01CC4B205F1B001C8B2DB
:1020F000002100F0D9F9102141EA1410002100F06C
:10210000D3F904F00F0141F00100002100F0CCF9F7
:1021100070BD00002DE9F04707468A469046994673
:10212000089EA8F12000C5B251463846FFF7D8FFF7
:10213000B9F5C16F08D0B9F5016F22D0A9F580506B
:102140001838002878D154E0002417E05EB105EB80
:10215000450104EB41015B4A515CC943C8B201210E
:1021600000F0A2F908E005EB450104EB4101554AF6
:10217000505C012100F098F9601CC4B2062CE5DB2C
:102180009CE0002413E04EB104EB05114E4A515C73
:10219000C943C8B2012100F087F906E004EB05113C
:1021A000494A505C012100F07FF9601CC4B2082C40
:1021B000E9DB791CC8B25146FFF792FF002415E015
:1021C00056B104EB051108313F4A515CC943C8B20E
:1021D000012100F069F907E004EB051108313A4AE2
:1021E000505C012100F060F9601CC4B2082CE7DBF0
:1021F00064E0002417E05EB105EB450104EB01113A
:10220000324A515CC943C8B2012100F04DF908E0DF
:1022100005EB450104EB01112C4A505C012100F053
:1022200043F9601CC4B2102CE5DB791CC8B25146DE
:10223000FFF756FF00241AE03FE066B105EB4501C9
:1022400004EB01111031214A515CC943C8B201218C
:1022500000F02AF909E005EB450104EB011110310A
:102260001A4A505C012100F01FF9601CC4B2102C06
:10227000E3DBB91CC8B25146FFF732FF002419E076
:1022800066B105EB450104EB011120310F4A515CA9
:10229000C943C8B2012100F007F909E005EB450187
:1022A00004EB01112031094A505C012100F0FCF8D7
:1022B000601CC4B2102CE3DB00E000BF00BFBDE82F
:1022C000F0870000A44B0008B4450008CC4D00087E
:1022D0002DE9F0410746884614461E4641463846D9
:1022E000FFF7FEFE002513E04EB105EB44111A4A3C
:1022F000515CC943C8B2012100F0D6F806E005EBF5
:102300004411154A505C012100F0CEF8681CC5B29A
:10231000102DE9DB791CC8B24146FFF7E1FE00252C
:1023200015E056B105EB441110310B4A515CC9431D
:10233000C8B2012100F0B8F807E005EB44111031F4
:10234000054A505C012100F0AFF8681CC5B2102DA1
:10235000E7DBBDE8F0810000390200202DE9F047FD
:1023600080460D4616461F46DDF8209000240AE000
:10237000325D4B4629464046FFF7AAFF05F11000A3
:10238000C5B2601CC4B2BC42F2DBBDE8F0872DE9E7
:10239000FF5F04460D4616461F46DDF838904FF0A5
:1023A000000A04EBC510C11700EB9151C1F387215E
:1023B0000391A34606EBC710C11700EB9151C1F37F
:1023C000872102910196DDF80C8027E059464046AE
:1023D000FFF786FECDF800B018E00F9840B95146DF
:1023E0000AF1010A19F80100012100F05DF809E085
:1023F00051460AF1010A19F80110C943C8B2012176
:1024000000F052F80098401CC0B20090DDE90001D5
:102410008842E2DD08F1010000F0FF0802988045E3
:10242000D4DDBDE8FF9F2DE9F84305460C4616466E
:102430009846DDF82090002730E0CDF80090F25D5E
:10244000434621462846FFF765FEB8F5C16F07D021
:10245000B8F5016F0CD0A8F580501838D0B910E04D
:10246000A01DC4B27F2C02DD0024681CC5B212E09E
:1024700004F10800C4B27F2C02DD0024A81CC5B200
:1024800009E004F11000C4B27F2C02DD0024E81C36
:10249000C5B200E000BF00BF781CC7B2F05D0028E5
:1024A000CBD1BDE8F883000070B505460C46064860
:1024B000046000200549C1F89C02284600F05EFD3A
:1024C00000200349086070BDBC02404200804042C9
:1024D0009C82404210B5F0EE401A1A4890ED000A76
:1024E000B0EE402A00241848006804280CDA174887
:1024F0001549096800EB8100C0ED001A1248006818
:10250000401C1149086019E00421104801F018FD31
:10251000B0EE402A01240CE00C4800EB840090ED62
:10252000000A601E094901EB800080ED000A601C72
:10253000C4B2042CF0DB0548C0ED031AB0EE420A29
:1025400010BD0000BC0600208806002020080020E6
:1025500010B5FF243248006840F0805030490860D0
:102560003048006840F480702E49086000BF0120A8
:1025700001F054FD601E84B234B129483030006847
:1025800000F002000028F2D025483030006800F04A
:10259000020068BB22483430006840F00100204946
:1025A00034310860FF2400BF012001F037FD601EB8
:1025B00084B234B11A483430006800F002000028B8
:1025C000F2D014B918A000F0F7FF154830300068B9
:1025D00020F440701249303108600846006840F429
:1025E000007008600846006840F40040086011E090
:1025F0000B483030006820F44070094930310860E1
:102600000846006840F4807008600846006840F49E
:1026100000400860CA20074908605320086010BDC8
:1026200040380240007000404C5349CEB4BECDD07B
:10263000F70A00002428004073B505250024CA20AD
:102640004B4908605320086049482C300068002836
:102650007ED147481838006840F080004449183956
:10266000086000BF012001F0D9FC681E85B235B1B9
:102670003F481838006800F040000028F2D03C487D
:102680001C38006820F0600039491C39086039485E
:10269000006800F0020048B1FF2035491439086095
:1026A0000846006840F4FE00086009E04FF4A0709E
:1026B0002F49143908600846006840F4C8000860D3
:1026C0009DF80700C007440A9DF804000021FEF7AA
:1026D00047FA00F03F0044EA00449DF8050000215D
:1026E000FEF73EFA00F07F0044EA00249DF8060061
:1026F0000021FEF735FA00F07F0004431C4824381F
:10270000046000249DF800000021FEF729FA04046B
:102710009DF803000021FEF723FA00F0070044EAC9
:1027200040349DF801000021FEF71AFA00F01F0066
:1027300044EA00249DF802000021FEF711FA00F09F
:102740003F0004430A48203804600948183800E074
:1027500009E0006820F08000054918390860012070
:1027600003492C310860FF20014908607CBD00004E
:1027700024280040703802403CB505460024002063
:10278000009001901C4804680121C4F30740FEF743
:10279000E7F98DF804000121C4F30620FEF7E0F903
:1027A0008DF80500E0B20121FEF7DAF98DF8060098
:1027B0001148001D04680121C4F30740FEF7D0F959
:1027C0008DF800000121C4F34230FEF7C9F98DF8FD
:1027D00003000121C4F30420FEF7C2F98DF80100C3
:1027E00004F03F000121FEF7BBF98DF802000098CC
:1027F0002860019868603CBD0028004070B52DED50
:10280000068B05460C46204600F0D6F8F32C21D165
:1028100022480088FDF787FE41EC1A0B9FED200B44
:1028200053EC102BFDF78DFD41EC190B9FED1E0BAA
:1028300053EC102BFDF7F7FD41EC180B9FED1C0B33
:1028400053EC102BFDF777FDC5E900010020BDEC2E
:10285000068B70BDF52C1FD110480088FDF763FE74
:1028600041EC1A0B9FED140B53EC102BFDF769FD97
:1028700041EC190B9FED0C0B53EC102BFDF7D3FD26
:1028800041EC180B9FED0E0B53EC102BFDF753FD95
:10289000C5E900010020DAE70120D8E77A06002028
:1028A000D7A3703D0AF76540000000000000F0402B
:1028B000CDCCCCCCCC6C47400000000000405F4049
:1028C000000000000000184010B5FEF7E3FEFEF720
:1028D0005BFF8020FEF790FFFE20FEF78DFF0F20AC
:1028E00001F09CFBFEF76EFF10BD000000B58BB041
:1028F000304A07CA05AB07C3F32108A8FFF77EFFDC
:1029000002A89DED080BFFF78FFA0020022305AA0D
:10291000102100901846FFF721FD00204FF40163BD
:102920003A22302100900220FFF7F4FB00204FF400
:10293000016302AA382100900220FFF774FD0023F2
:10294000012262210220FFF7C3FC04208DF814004D
:1029500005208DF81500F52108A8FFF74FFF00208E
:10296000022305AA102100900420FFF7F7FC02A81B
:102970009DED080BFFF758FA00204FF401633A224F
:10298000302100900420FFF7C5FB00204FF40163C5
:1029900002AA382100900420FFF745FD00204FF4E3
:1029A00001632522622100900420FFF7B3FB0BB0E6
:1029B00000BD00009C5F000870B506461424FEF7B9
:1029C000E3FE8020FEF718FF012800D170BD3046DD
:1029D000FEF712FF012801D10220F7E700BF0A200D
:1029E00001F01CFB601EC4B2FEF7CEFE8120FEF794
:1029F00003FF0546012D01D1002CF0D124B910A010
:102A000000F0DAFD0320E1E70020FEF77BFE12492B
:102A10000880084600884FF6FF7101EA00200E4941
:102A200008800020FEF76EFE0B49098808430A491A
:102A300008800120FEF766FEFEF7C4FE0020C5E711
:102A400053485432305F57726974655F434D443A5E
:102A5000B7B5BBD8330000007A06002022480068D2
:102A600040F08050204908602048006840F4404011
:102A70001E4908601C48383800681B49383908600E
:102A80000846006808600846006840F48050086006
:102A90001748091F0860081F006840F08070091F70
:102AA000086000BF10484038006800F0007000283F
:102AB000F8D040F202700F4908600B4838380068BF
:102AC00020F003000849383908600846006840F0E3
:102AD0000200086000BF04483838006800F00C00AD
:102AE0000828F8D1704700004038024000700040CC
:102AF00010640107003C02402DE9F04F87B0BC4D47
:102B0000102600274FF008084FF008090120069012
:102B10000590FEF7CFFEB7490870084600780628F2
:102B200073D2DFE800F0E29AACD0BE03002490E05C
:102B3000285D00286AD0062C69D2DFE804F003166D
:102B4000293C4F6CFFF7ACF90CE0FEF7DFFFFEF716
:102B5000B1FEA849087008460078012802D1FFF7A5
:102B60009FF900E0F1E700BF70E0FFF799F90CE092
:102B7000FEF750F8FEF79EFE9E4908700846007862
:102B8000012802D1FFF78CF900E0F1E700BF5DE01A
:102B9000FFF786F90CE000F031F9FEF78BFE95495E
:102BA000087008460078012802D1FFF779F900E0A3
:102BB000F1E700BF4AE0FFF773F90CE0FFF796FE7C
:102BC000FEF778FE8B49087008460078012802D18C
:102BD000FFF766F900E0F1E700BF37E0FFF760F9C3
:102BE00016E0069810B1FEF721FC0690FEF762FE93
:102BF0008049087008460078012809D1FFF750F98C
:102C0000FEF73CFB0120069003E06EE01FE01CE0B5
:102C1000E7E700BF1AE0FFF743F913E0059810B1AA
:102C2000FEF78AFB0590FEF745FE724908700846DC
:102C30000078012806D1FFF733F9FEF7FFFA0120EB
:102C4000059000E0EAE700BF00E000BF00BF601CA5
:102C5000C4B2062CFFF66CAF48E000240BE0285D00
:102C600038B1002C05DD002028550121601E2954B3
:102C700003E0601CC4B2062CF1DB00BF36E0002488
:102C80000BE0285D38B1052C05DA0020285501211C
:102C9000601C295403E0601CC4B2062CF1DB00BFA9
:102CA00024E000240BE0285D38B1022C05DD002073
:102CB00028550121E01E295403E0601CC4B2062CF3
:102CC000F1DB00BF12E000240BE0285D38B1032CDB
:102CD00005DA002028550121E01C295403E0601C7E
:102CE000C4B2062CF1DB00BF00E000BF00BF00242F
:102CF00079E0285DD0B3032094FBF0F109F11A00CC
:102D000001FB0070193000F0FF0A032094FBF0F182
:102D100000FB114108F11A0001FB0060193000F0BE
:102D2000FF0B032094FBF0F109F11A0001FB007086
:102D3000C0B20490032094FBF0F100FB114108F1B4
:102D40001A0001FB0060C0B20121039004EB840073
:102D500000EBC400284A02EBC00053465A46CDE9B6
:102D60000001DDE90301FFF712FB3AE0FFE7032072
:102D700094FBF0F109F11A0001FB0070193000F02A
:102D8000FF0A032094FBF0F100FB114108F11A0047
:102D900001FB0060193000F0FF0B032094FBF0F101
:102DA00009F11A0001FB0070C0B20490032094FBEB
:102DB000F0F100FB114108F11A0001FB0060C0B204
:102DC0000021039004EB840000EBC4000A4A02EBEC
:102DD000C00053465A46CDE90001DDE90301FFF783
:102DE000D6FA601CC4B2062C83DB07B0BDE8F08FB6
:102DF000000000202900002044430008F0B58DB0F9
:102E00003DA000680A9003AD05AC0BAF01A8FFF729
:102E1000B3FCDDE90101CDE90B01002613E017F851
:102E2000012B36A103A800F0D7FB03AD03E015F892
:102E3000010B04F8010B28780028F8D12D2004F8A4
:102E4000010B701CC6B2032EE9DB0021601E044694
:102E5000017000204FF4C1632AA2202100900620B7
:102E6000FFF7E1FA00204FF4C16305AA2C2100907E
:102E70000620FFF7D8FA05AC0CAF002613E017F8D0
:102E8000012B1EA103A800F0A7FB03AD03E015F87A
:102E9000010B04F8010B28780028F8D13A2004F837
:102EA000010B701CC6B2032EE9DB0021601E044634
:102EB000017000204FF4016305AA20210090032037
:102EC000FFF7B1FA9DF82F00C01DC0B28DF82A009F
:102ED000002002230AAA28210090FFF73FFA9DF85C
:102EE0002A20002348211846FFF7F2F99DF8320006
:102EF000054908700DB0F0BD0607000025303264AA
:102F00000000000032300000280000201748006850
:102F100040F00200154908601548006820F44C6034
:102F2000134908600846006840F488600860081D7E
:102F3000006820F00800091D0860081D006820F0E6
:102F4000C000091D08600846006840F40860086079
:102F5000081D006820F44C60091D08600020054928
:102F600008600549C1F894027047000030380240FB
:102F7000000402408C8240420080404270B504460A
:102F800000251AE000201049086004F0800020B1FC
:102F900001200D490831086003E000200A4908318A
:102FA0000860012001F088F801200749086001F05D
:102FB00083F86006040E681CC5B2082DE2DB002011
:102FC0000149086070BD00008C82404210B5154870
:102FD000006840F47000134908601348006840F02E
:102FE00001001149086000200F49083108600E48AF
:102FF00000680E4908400C4908600D48091D08602A
:10300000081F006820F48020091F0860002006497E
:103010000C310860FFF722FD4FF000600149803954
:10302000086010BD88ED00E000380240FFFFF6FEAA
:10303000103000240C48008A00F0010090B10A48CA
:10304000008A20F00100084908820848007848B149
:1030500006480078401EC0B20449087010B901202B
:103060000349087070470000004001400D00002037
:103070000C0000204FF08040008A00F0010038B1C1
:103080004FF08040008A20F001004FF0804108821C
:10309000704700001348008800F0010008B3114891
:1030A000008820F001000F4908800F480078400692
:1030B000000E0D4908700D48006900F00100097804
:1030C0000843094908700846007818B900200849E3
:1030D000087106E004480078FF2802D10120044965
:1030E00008717047100400402F00002000000240CB
:1030F0002A00002010B51648006840F0020014496C
:10310000086063201349088041F28730091D086078
:1031100010482438008820F070000E4924390880B7
:103120000846008840F020000880081F008840F012
:103130000100091F088007481C38008840F0010082
:1031400004491C3908801D20FEF71BFE10BD00003D
:10315000403802402804004000202149096841F419
:1031600000311F4A11601F49098841F080011D4A42
:1031700011801146098821F0040111801146098847
:1031800021F00201118017490C31098821F0010159
:10319000144A0C3211806321124A28321180002116
:1031A000121D11600F4A243211600E491431098832
:1031B00041F001010B4A1432118001E0411C88B238
:1031C00008491031098801F0010111B9B0F57A7F81
:1031D000F4DB0449098821F00101024A118070479B
:1031E00044380240004401402DE9F04104460D46B8
:1031F00000261CB915B942F21074642530480068E5
:1032000040F480302E4908602D482038006840F492
:1032100080302B49203908600846006820F480304F
:1032200008602848008840F0800026490880084649
:10323000008820F0040008800846008820F0020082
:1032400008800846808940F001008881601E08855A
:10325000681EC862002048620846808A40F001006B
:10326000888201E0701C86B21648008A00F00100D6
:1032700010B9B6F57A7FF5DBB6F57A7F02DB12A0DE
:1032800000F09AF90F48008A20F001000D490882E9
:103290000520FEF7B5FD002211460520FEF77CFD56
:1032A000074639461820FEF797FD1820FEF75EFD09
:1032B0000448008840F0010002490880BDE8F08120
:1032C00044380240004001400A54494D39B1EAD621
:1032D000BECEBBB3ACCAB10A0000000010B5244892
:1032E000008800F02000002840D021488088C4B227
:1032F000204801880088401C1E4A10801E48445403
:103300000078D02806D11C484078012802D11B49FA
:10331000087020E018480078D02806D11648407878
:1033200018B902201549087015E013480078902854
:1033300007D111484078012803D103200F490870B4
:1033400009E00D480078902805D10B48407810B965
:1033500004200A49087007480088122806DB00206C
:103360000449088012210448FCF739FF10BD000011
:10337000001001400E000020D806002010000020A0
:103380002DE9F0412DED0A8B6848006840F00100FE
:1033900066490860664800686649084064490860F4
:1033A0000846006840F4201008600846406820F491
:1033B000007048600846806820F440208860084615
:1033C000806840F4802088600846C06820F440206F
:1033D000C8600846C06820F44010C8600846C0684D
:1033E00040F48010C8600846406A20F47F6150486D
:1033F0004162406A40F4EE614D4841624B481430EE
:10340000006840F0100049491431086047480C3802
:10341000006840F0100045490C3908600846006813
:1034200020F0100008604448808920F41040424990
:1034300088810846808940F00C0088810846008A0F
:1034400020F44050088208468089C60BC6F102016C
:10345000C800FDF757F841EC1A0B9FED380B53EC01
:10346000102BFCF76EFF41EC190B53EC192B9FED61
:10347000350B51EC100BFCF7D6FF41EC180B51EC5F
:10348000180BFDF77CF884B22046FDF74CF841ECB0
:103490001C0B53EC182BFCF751FF41EC1B0B9FED61
:1034A0002B0B53EC102BFCF74CFF41EC1A0B9FED50
:1034B000290B53EC102BFCF79DFE41EC190BFDF78B
:1034C0005EF885B20F2D04DD601C84B2A5F11000FA
:1034D00085B245EA0410184908810846808940F001
:1034E000200088810846008820F020000880052000
:1034F000FEF786FC002211460520FEF74DFC07462C
:1035000039462520FEF768FC2520FEF72FFC0A48E7
:10351000808940F400500849888100210846FFF75F
:1035200063FEBDEC0A8BBDE8F0810000303802403C
:1035300000000240FEFFF3FF001001400000000009
:1035400000C0C2400000000084D797410000000086
:1035500000003040000000000000E03F08B50146D8
:10356000002000906946014808BD0000CC060020FC
:1035700000B58621AA2000F003F8002000BD00005D
:10358000024600EE102AB8EE400ADFED090A80EE8E
:10359000201A084880ED001A00EE101AB8EE400A12
:1035A000F0EE000A80EE201A80ED011A002070472C
:1035B0000000C842CC0600200FB4054B10B503A98B
:1035C000044A029800F020F910BC5DF814FB0000DA
:1035D00031410008140000200FB4084B10B504A9B5
:1035E00002AA039800F010F9044602A9002000F096
:1035F000A2FC204610BC5DF814FB0000373F000819
:1036000000B52DED048BB0EE409AF0EE609A83B0D9
:1036100051EC190BFDF720F941EC180B18EE100ACC
:1036200018EE901A8DED008B002818BF012008437A
:1036300020F00040C0F17F6000F1E040C00F14D0E6
:1036400019EE101A19EE900A8DED009B002918BF93
:103650000121084320F00040C0F17F6000F1E0400C
:10366000C00F04BF012000F017F8B0EE480A03B005
:10367000F0EE680ABDEC048B00BD02E008C8121F22
:1036800008C1002AFAD170477047002001E001C14B
:10369000121F002AFBD170470149086070470000E3
:1036A000D40600202DE9FF5FDDE90220010DDDF8E1
:1036B00038B0024318D044F61050A1F2FF31414314
:1036C0000D140F98012820D0A5EB0B00401C5FEAD9
:1036D000000A4FF00004474EDFF81C91A046504608
:1036E00016D5CAF1000728E00F98012443A201284B
:1036F00008D0002100980F9BC0E90021C0E90243D7
:10370000BDE8FF9F6FEA0B01F4E7CBF10000DEE7B5
:10371000074612E0F80707D022463346404649469E
:10372000FCF70FFE8046894622463346104619466E
:10373000FCF707FE04460E467F10002FEAD1DDE9B4
:103740000201BAF1000F42464B4602DAFCF7F9FDDE
:1037500001E0FCF768FE04460E460022284BFDF708
:10376000E5F803D84FF0FF30014607E00022254B73
:1037700020463146FCF73EFDFDF7BFF8102409E076
:10378000002C0ADB0A220023FCF770FF019B303279
:103790001A55641E50EA0102F2D1641C019AC4F168
:1037A000110314440F9A012A03D0012208430DD1BA
:1037B0000AE0084304D000204FF0110B0F9080E77F
:1037C000A3EB0B056D1E0DE05B4504DD4FF0000221
:1037D00005F1010504E003DA4FF00002A5F101054F
:1037E000002AECD000980F99C0E90231C0E90045E9
:1037F00086E70000000024400000F03F3000000099
:103800000000F0430000E03F2DE9FF4F95B09B46DC
:103810008946064600250FE2252877D10024274651
:10382000F84A0121059400E0044316F8013F203BCB
:1038300001FA03F01042F7D130782A2811D06FF046
:103840002F033078A0F13002092A16D8059A44F0E7
:10385000020402EB820203EB42021044761C059044
:10386000EFE759F8042B0592002A03DA504244F49A
:103870000054059044F00204761C30782E2816D1AE
:1038800016F8010F44F004042A280DD06FF02F021F
:103890003078A0F13003092B09D807EB870302EB3E
:1038A0004303C718761CF3E759F8047B761C30787D
:1038B0006C280FD006DC4C2817D068280DD06A2859
:1038C00014D104E0742810D07A280FD10DE044F40C
:1038D00000140AE044F4801401E044F440147278C7
:1038E000824202D104F58014761C761C307866285A
:1038F0000BD013DC582877D009DC002875D0452878
:10390000F6D04628F4D047281AD19DE118E0632864
:1039100035D0642879D0652812D195E1702873D00C
:1039200008DC6728F1D069286FD06E280DD06F2889
:1039300006D1B5E073282CD0752875D0782874D0BE
:103940005A46179990476D1C75E1C4F3025002283E
:1039500009D003280DD0D9F8001004280DD00D602F
:1039600009F1040967E1D9F80010EA17C1E900522A
:10397000F6E7D9F800100D80F2E70D70F0E719F8BE
:10398000041B8DF8001000208DF80100EA4601208C
:1039900003E059F804AB4FF0FF3061074FF000012E
:1039A00002D40DE008F101018846B9420FDA8045E2
:1039B000F8DB1AF808100029F4D108E008F1010139
:1039C00088468142FADB1AF808100029F6D10598DA
:1039D0005B46A0EB080721463846179A00F094FA98
:1039E000284400EB080507E04DE029E10DE01AF856
:1039F000010B5A4617999047B8F10108F7D25B4678
:103A000021463846179A13E142E00A220092C4F395
:103A100002524FF0000A022A08D059F804CB032AB8
:103A20004FEAEC710AD00DE029E02AE009F1070124
:103A300021F00702F2E802C1914609E00FFA8CFC7E
:103A40004FEAEC71042A03D14FFA8CFC4FEAEC7177
:103A5000002907DA0A460021DCF1000C61EB0201C3
:103A60002D2202E0220504D52B228DF8042001220C
:103A700003E0E20701D02022F7E7904659E00A214F
:103A800002E010220DE010214FF0000A00910BE03F
:103A900010224FF0000A44F004040827009203E0CB
:103AA00008224FF0000A0092C4F30252022A05D005
:103AB00059F804CB0021032A08D009E009F10701D5
:103AC00021F00702F2E802C1914605E01FFA8CFCE2
:103AD000042A01D10CF0FF0C4FF00008220728D572
:103AE000702806D0009B83F0100353EA0A0305D028
:103AF0000EE040228DF80420012208E05CEA010279
:103B000006D030228DF804208DF805000222904660
:103B1000009B83F0080353EA0A030AD15CEA01021E
:103B200001D1620705D530228DF804204FF001083D
:103B30007F1E582804D034A003900EA802900DE0F8
:103B400036A0F9E753466046009AFCF78FFD84469D
:103B50000398825C0298401E029002705CEA0100A9
:103B6000F0D1029806A9081A00F1200A600702D5D0
:103B700024F4803400E00127574502DDA7EB0A005A
:103B800000E0002000EB0A01009005984144401A33
:103B90000590E00306D45B462146179A059800F08D
:103BA000B3F90544002706E001A85A46C05D1799FD
:103BB00090476D1C7F1C4745F6DBE0030CD55B4648
:103BC0002146179A059800F09FF9054404E030203B
:103BD0005A46179990476D1C0099481E009000297D
:103BE000F5DC08E0029802995A460078491C0291D7
:103BF000179990476D1CBAF10001AAF1010AF1DC96
:103C000065E10000092801003031323334353637A0
:103C10003839616263646566000000003031323318
:103C200034353637383941424344454600000000B8
:103C300000F058F90544761C307800287FF4ECAD8C
:103C400019B02846BDE8F08F620700D4062709F1B5
:103C5000070222F0070CFCE80223E14603F00048CB
:103C60005FEA080C02D00FF2702C0DE05FEA045CF2
:103C700002D50FF2682C07E05FEAC47C02D00FF295
:103C8000602C01E0AFF2700C4FF0FF3823F00043DE
:103C9000CDF850C065280CD006DC452809D0462850
:103CA0001DD047283DD13DE0662818D067287ED139
:103CB00038E00021112F01DB112000E0781CCDE954
:103CC000000106A90EA8FFF7EDFCDDE90F010E9A31
:103CD00003910021009207F1010A04914DE04FF099
:103CE00000400097CDE9011006A90EA8FFF7DAFC05
:103CF000DDE90F0203920E9B11990022DDF80CA062
:103D00000093049211B9791C00EB010AB7EB0A0089
:103D100004D4C0F1FF3007F1010A0490AAEB0700B8
:103D2000019044E0012F00DA01270021112F01DD6D
:103D3000112000E03846CDE9000106A90EA8FFF7E2
:103D4000B1FCDDE90F010E9A03910021049100926C
:103D5000BA4621070CD40399514500DA8A46BAF1D4
:103D6000010F05DD009AAAF10101515C302908D04C
:103D7000B84202DA10F1040F06DA0121CDE9011090
:103D800015E0AAF10101E9E7002805DC04990144E6
:103D90000491AAEB000102E0411C514500DD8A4676
:103DA0000499401A401C01904FF0004002902007F7
:103DB00004D40198504501DBCDF8048000208DF833
:103DC0004F0002980DF14F07B0F1004F25D02B2086
:103DD0000E9002984FF0020800280CDA4042029040
:103DE0002D200E9007E00A210298FCF729FC3031C3
:103DF000029007F8011DB8F10001A8F10108F2DCFA
:103E000002980028EFD1791E0E980870307800F0E3
:103E1000200040F0450007F8020D12A8C01B00F179
:103E200007081498007800B1012000EB0A010198FE
:103E300001EBE07105984144401A401E0590E003F3
:103E400006D45B462146179A059800F05DF80544B4
:103E50001498007818B15A46179990476D1CE003E2
:103E600024D55B462146179A059800F04DF8054485
:103E70001CE00498002807DBDDE90301884203DD2C
:103E80000098405C179901E0179930205A469047F6
:103E9000049805F10105401C04900198401E019012
:103EA00004D12E205A46179990476D1CBAF1000193
:103EB000AAF1010ADDDC05E017F8010B5A46179953
:103EC00090476D1CB8F10001A8F10108F4DC5B46D5
:103ED0002146179A0598ABE62D0000002B00000044
:103EE000200000002DE9F041044600251E4617463B
:103EF000880404D405E039462020B0476D1C641EB8
:103F0000F9D52846BDE8F0812DE9F04104460025A9
:103F10001E469046C80301D5302700E020278804BC
:103F200004D505E041463846B0476D1C641EF9D5FE
:103F30002846BDE8F0810A68531C0B60107070477A
:103F40000246DFED310AB0EE600A002000BF09E052
:103F500002EB8003D3ED000A70EE800AB0EE600A37
:103F6000431CD8B28842F3DBF1EE000A80EE201A3F
:103F7000B0EE410AF2EE000AB4EEE00AF1EE10FAF9
:103F800004DBDFED220AB0EE600A3CE0F1EE0C0A41
:103F9000B4EEE00AF1EE10FA0BDBF2EE000AB4EE3A
:103FA000E00AF1EE10FA04D2DFED190AB0EE600A71
:103FB00029E0F1EE000AB4EEE00AF1EE10FA0BDBB4
:103FC000F1EE0C0AB4EEE00AF1EE10FA04D2DFEDE5
:103FD000110AB0EE600A16E0F0EE080AB4EEE00A4C
:103FE000F1EE10FA0BDBF1EE000AB4EEE00AF1EEAE
:103FF00010FA04D2F0EE000AB0EE600A03E0DFED42
:10400000060AB0EE600A7047000000009A998940E5
:1040100033335340333313406666A63F204A128839
:1040200022F001021E4B1A8000EB4002C2EBC012CC
:104030000123C3EBC2021A4B2C331A60184A143204
:10404000128842F00102164B14331A800022144BDE
:1040500024331A60124A1032128822F00102104BE7
:1040600010331A800E4A128842F001020C4B1A805B
:1040700000BF0B4A1032118801F00102002AF8D06B
:10408000074A1032128822F00102054B10331A80C1
:10409000034A128822F00102014B1A807047000087
:1040A0000044014010B5044603E00120FFF7B6FFCD
:1040B000641E002CF9D110BD1C4A128822F00102A6
:1040C0001A4B1A80194A2C321060184A143212887E
:1040D00042F00102154B14331A800022134B243393
:1040E0001A60124A1032128822F001020F4B10336C
:1040F0001A800E4A128842F001020C4B1A8000BF4F
:104100000A4A1032118801F00102002AF8D0074A49
:104110001032128822F00102044B10331A80034A35
:10412000128822F00102014B1A80704700440140BE
:1041300000BF044A128802F08002002AF9D0014B25
:1041400098807047001001401CB5404903C9CDE973
:10415000000101240125FDF7CBFBFEF7FDFFFFF772
:104160000FF9FDF78BFBFDF7BBFEFEF7F1F9DDE97B
:104170000001FEF761FAFDF78DFAFEF7A5FBFDF7EA
:1041800057FAFCF71DFDFCF705FD5DE0FEF7B4FCFA
:104190002F48007801282CD1FDF782FE2DA0FFF7D3
:1041A0000BFA24E014B1FDF741F90446FDF782FB58
:1041B0002C49087008460078012808D1FDF770FEE8
:1041C000FDF75CF8012400202149087010E0204828
:1041D000007802280BD1FDF763FE23A0FFF7ECF96E
:1041E000FDF74CF8012400201949087000E0D9E7D8
:1041F0002AE017480078032826D1FDF751FE21E078
:1042000015B1FDF799F80546FDF754FB15490870FF
:1042100008460078012808D1FDF742FEFDF70EF8A8
:10422000012500200A4908700DE00948007804289B
:1042300008D1FDF735FEFDF701F8012500200449FE
:10424000087000E0DCE700BFA0E7000014430008AE
:1042500010000020B4F2BFAAD0C4C2CAB2E2C1BFEB
:104260000000000029000020B9D8B1D5D0C4C2CACE
:10427000B2E2C1BF000000002DE9F0472DED048B34
:1042800004460E4617462546B846B14695ED000A47
:104290001E4880ED000A95ED010A80ED010A95EDBA
:1042A000020A80ED020A90ED000A20EE000AD0ED2D
:1042B000010A90ED011A00EE810AD0ED020A90ED9C
:1042C000021A00EE810A10EE101A0846FCF770F987
:1042D00041EC190BB0EE490AF0EE690AFFF790F9CC
:1042E000B0EE408AF0EE608A51EC180BFCF78CF9C6
:1042F0000749086041464846054A92ED000AFCF726
:10430000BFFCBDEC048BBDE8F08700001408002062
:10431000B006002012081004091E00000000000072
:104320000008102040FF8244281000000000000018
:10433000000000000010080402FF412214080000E1
:104340000000000000000080C040C0C0306000904D
:10435000B080B0908020200000000000000000002D
:104360000001030202033E63C18D302020300D03A3
:1043700006FCE0000000000000000000000000005B
:104380000000001F3F20606020301C0F0100000073
:10439000000000000000000000000000000000001D
:1043A000000000000000000000000000000000000D
:1043B0000000008080000000FCFCFC70E0C0800079
:1043C0000000000000000000000000000003038760
:1043D000CEFCFFFFFFCE87030300000000000000BB
:1043E000000000000000000707030100FFFFFF3985
:1043F0001F0F070000000000000000000000000088
:1044000000000000000000000000000000000000AC
:10441000000000000000000000804020301010006C
:10442000181800101020204080000000000000003C
:104430000030B6010000000000001F37408000007F
:10444000000001B630000000000000000106081066
:1044500010202000606000202130100806010000BC
:10446000000000000000000000000000000000004C
:10447000000000000000000000000000000000003C
:10448000000000000000F88C84040CF8000000001C
:10449000000000000000000000000000000080C0DC
:1044A0007F050500007FC0800000000000000000C4
:1044B00000000000000000043F6040C08090D84C25
:1044C000603F0C0000000000000000000000000041
:1044D00000000000000000000000000000000000DC
:1044E00000000000000000C060203030302060C0BC
:1044F00080804020203030202040800000000000DC
:104500000F3160E0202060603038E1C1F01C071CF2
:1045100030A0E0601F060000000000000000010263
:1045200004081020416330180C060301000000004D
:10453000000000000000000000000000000000007B
:10454000000000000000000000000000000000006B
:104550000080E07038181838F0C00080C0E0C0C09B
:1045600080800000000000707C7C7E1F0180E0786D
:104570001CC7F3F8FEFFFFFF7F7F7FFF9F06000051
:104580000000000000001F3F3030333F1F0F0F1F9F
:104590001F10303630100F07000000000000000030
:1045A000000000000000000000000000000000000B
:1045B00000000000000000000000000000000000FB
:1045C00000000000000000F80000000000000033C0
:1045D0003000000000100C06100C06000000000067
:1045E0000000000040C07840C0784000043F040450
:1045F0003F040400007088FC08300000001820FF11
:10460000211E0000F008F000E018000000211C034B
:104610001E211E0000F00888700000001E212324C7
:104620001927211010160E000000000000000000E5
:1046300000000000000000E0180402000000000775
:104640001820400000020418E0000000004020187C
:1046500007000000404080F0804040000202010F4F
:1046600001020200000000F0000000000101011F33
:1046700001010100000000000000000080B0700097
:104680000000000000000000000000000001010127
:1046900001010101000000000000000000303000B6
:1046A0000000000000000000806018040060180690
:1046B0000100000000E010080810E000000F1020CA
:1046C00020100F00001010F8000000000020203F14
:1046D000202000000070080808887000003028249E
:1046E000222130000030088888483000001820203F
:1046F00020110E000000C02010F800000007042464
:10470000243F240000F808888808080000192120A8
:1047100020110E0000E0108888180000000F112002
:1047200020110E0000380808C83808000000003FBB
:10473000000000000070880808887000001C22211A
:1047400021221C0000E010080810E00000003122C7
:1047500022110F00000000C0C00000000000003067
:1047600030000000000000800000000000008060B9
:10477000000000000000804020100800000102043A
:104780000810200040404040404040000404040421
:1047900004040400000810204080000000201008DD
:1047A00004020100007048080808F0000000003012
:1047B00036010000C030C828E810E00007182724A0
:1047C00023140B000000C038E0000000203C23024E
:1047D0000227382008F8888888700000203F2020B1
:1047E00020110E00C03008080808380007182020E3
:1047F0002010080008F808080810E000203F2020DA
:1048000020100F0008F88888E8081000203F2020BA
:104810002320180008F88888E8081000203F2000AE
:1048200003000000C03008080838000007182020E6
:10483000221E020008F808000008F808203F2101A5
:1048400001213F20000808F8080800000020203F50
:104850002020000000000808F8080800C0808080C0
:104860007F00000008F888C028180800203F2001B9
:104870002638200008F8080000000000203F202013
:104880002020300008F8F800F8F80800203F003F2A
:10489000003F200008F830C00008F808203F200042
:1048A00007183F00E01008080810E0000F10202053
:1048B00020100F0008F808080808F000203F210128
:1048C00001010000E01008080810E0000F1824247F
:1048D00038504F0008F8888888887000203F2000F2
:1048E000030C3020007088080808380000382021A8
:1048F00021221C00180808F8080818000000203FB2
:104900002000000008F808000008F808001F202018
:1049100020201F000878880000C8380800000738E9
:104920000E010000F80800F80008F800033C07003A
:10493000073C0300081868808068180820302C03A2
:10494000032C30200838C800C83808000000203F79
:104950002000000010080808C83808002038262168
:1049600020201800000000FE020202000000007F6C
:1049700040404000000C30C000000000000000017A
:104980000638C00000020202FE0000000040404065
:104990007F0000000000040202020400000000008A
:1049A0000000000000000000000000008080808007
:1049B00080808080000202040000000000000000EF
:1049C0000000000000008080808000000019242288
:1049D00022223F2008F8008080000000003F1120C4
:1049E00020110E000000008080800000000E1120C9
:1049F00020201100000000808088F800000E1120A7
:104A000020103F200000808080800000001F2222B4
:104A100022221300008080F0888888180020203F20
:104A2000202000000000808080808000006B949433
:104A30009493600008F8008080800000203F2100EF
:104A400000203F2000809898000000000020203FB8
:104A500020200000000000809898000000C08080A6
:104A6000807F000008F8000080808000203F240242
:104A70002D302000000808F8000000000020203F32
:104A8000202000008080808080808000203F2000E7
:104A90003F20003F8080008080800000203F210078
:104AA00000203F200000808080800000001F202028
:104AB00020201F00808000808000000080FFA12057
:104AC00020110E000000008080808000000E112068
:104AD00020A0FF80808080008080800020203F21F7
:104AE00020000100000080808080800000332424AA
:104AF00024241900008080E0808000000000001F56
:104B0000202000008080000000808000001F202006
:104B100020103F20808080000080808000010E30C7
:104B20000806010080800080008080800F300C0328
:104B30000C300F0000808000808080000020312E2B
:104B40000E312000808080000080808080818E7007
:104B50001806010000808080808080000021302CB9
:104B60002221300000000000807C020200000000D2
:104B7000003F404000000000FF0000000000000077
:104B8000FF0000000002027C800000000040403F67
:104B90000000000000060101020204040000000001
:104BA000000000000000000000000000002F0000D6
:104BB00000000700070000147F147F1400242A7FE0
:104BC0002A1200626408132300364955225000005F
:104BD0000503000000001C224100000041221C00CF
:104BE0000014083E08140008083E0808000000A051
:104BF000600000080808080800006060000000204D
:104C000010080402003E5149453E0000427F40002A
:104C1000004261514946002141454B3100181412B0
:104C20007F10002745454539003C4A49493000017D
:104C30007109050300364949493600064949291ECC
:104C4000000036360000000056360000000814222E
:104C5000410000141414141400004122140800022E
:104C60000151090600324959513E007C1211127C53
:104C7000007F49494936003E41414122007F414180
:104C8000221C007F49494941007F09090901003E72
:104C90004149497A007F0808087F0000417F4100B0
:104CA000002040413F01007F08142241007F404026
:104CB0004040007F020C027F007F0408107F003E0E
:104CC0004141413E007F09090906003E4151215EF4
:104CD000007F091929460046494949310001017FF1
:104CE0000101003F4040403F001F2040201F003F87
:104CF0004038403F00631408146300070870080739
:104D000000615149454300007F41410000552A554B
:104D10002A55000041417F000004020102040040C6
:104D200040404040000001020400002054545478E8
:104D3000007F484444380038444444200038444408
:104D4000487F00385454541800087E0901020018A6
:104D5000A4A4A47C007F080404780000447D4000E3
:104D6000004080847D00007F102844000000417FC7
:104D70004000007C04180478007C080404780038A3
:104D80004444443800FC242424180018242418FC2B
:104D9000007C0804040800485454542000043F4494
:104DA0004020003C4040207C001C2040201C003C57
:104DB0004030403C004428102844001CA0A0A07CA7
:104DC000004464544C4414141414141400000000DF
:104DD00000000000000000000000000000000000D3
:104DE00000000000000000000000000000000000C3
:104DF00000000000000000000000000000000000B3
:104E00000000F0F0F00000000000000000000000D2
:104E10000000017F01000000000000000000000011
:104E200000001C1C1C1C0000000000000000806032
:104E3000303C1C8C60303C1C0C000000000000006A
:104E40000000000000000000000000000000000062
:104E50000000000000000000000000000000000052
:104E600000E0000000000000E000000000868686F0
:104E7000FE878686868686FE878686000001011F5D
:104E80000101010101011F01010101000000008079
:104E9000C0402020F8202060C0C0000000000003B7
:104EA000070C0C18FF3060E1C18100000000070F03
:104EB0000B1010107F1010080F07000080C060203A
:104EC00020C08000000080C0200000000F1F3020A4
:104ED000301F8F60D8E6331030E0C00000000010B3
:104EE0000C030100070F1810180F0700000080C006
:104EF000602020E0C00000000000000080E0271FCC
:104F000078E8C4070304C43C04040000070F181029
:104F10001010110B070F181010100C0000808C4C93
:104F20007C380000000000000000000000000000CD
:104F30000000000000000000000000000000000071
:104F40000000000000000000000000000000000061
:104F50000000000000C060301808040000000000DD
:104F60000000007CFF0100000000000000000000C5
:104F70000000000003070C1830204000000408184F
:104F80003060C000000000000000000000000000D1
:104F9000000001FF7C000000000000000040203005
:104FA000180C0703000000000000000000000000D3
:104FB000000000C0C0C00000000000000000426609
:104FC00066242818FF1824246666420000000000AA
:104FD00000000003030300000000000000000000C8
:104FE0000000000080000000000000000000101021
:104FF00010101010FF101010101010000000000012
:10500000000000000300000000000000000000009D
:105010000000000000000000000000000000000090
:1050200000000000000000000000000000808C4C28
:105030007C380000000000000000000000000000BC
:105040000000000000000000000000000010101030
:1050500010101010101010101010100000000000A0
:105060000000000000000000000000000000000040
:105070000000000000000000000000000000000030
:1050800000000000000000000000000000001C1CE8
:105090001C180000000000000000000000000000DC
:1050A00000000000000000C03018040000000000F4
:1050B0000080C030180603000000000000403018D7
:1050C00006010000000000000000000000000000D9
:1050D000C0C0602020202040C00000000000FCFF75
:1050E000030000000000000001FFFE0000000003BC
:1050F000060C1810101018080E03000000000080A5
:10510000808080C0E000000000000000000000007F
:10511000000000FFFF000000000000000000001081
:105120001010101F1F101010100000000000804011
:1051300040202020202060C0C0800000000003022A
:1051400000000080402030180F0700000000181CED
:105150001A191918181818181C070000000080C028
:1051600040202020206040C0800000000000030399
:105170000000101010182867C38000000000070FFF
:10518000101010101010180C070300000000000091
:1051900000000000C0E0F0F0000000000080C0B09F
:1051A0009884828180FFFFFF8080800000000000E3
:1051B00000001010101F1F1F101010000000000032
:1051C000E060606060606060606000000000003E61
:1051D0002310080808081830F0C000000000070B72
:1051E000101010101010180C0F0300000000000029
:1051F00080C0402020202020E0C000000000FCFFF4
:10520000211018080808081830F0C0000000010735
:105210000E081810101010180C070300000080E092
:1052200060606060606060E060200000000003007B
:10523000000000C0300C020100000000000000006F
:1052400000001E1F0000000000000000000080C0E1
:105250004020202020202040C08000000080C36724
:105260002C181810303070E8C783000000070F0CAE
:1052700018101010101018080F070000000080C050
:1052800060202020202040C080000000001F3F3010
:105290006040404040602010FFFE000000000C1CF9
:1052A0001010101018080C07030000000000000088
:1052B00000000000000000000000000000000000EE
:1052C00000000E0E0E0E00000000000000000000A6
:1052D00000001C1C1C1C000000000000000000005E
:1052E00000000000000000000000000000000000BE
:1052F00000000C0C00000000000000000000000096
:10530000000058380000000000000000000000000D
:1053100000000000008040602010000000001038F5
:105320002844C683010000000000000000000000C7
:10533000000000010102040C081000000000000041
:1053400000000000000000000000000000848484D1
:1053500084848484848484848484840000000000A1
:10536000000000000000000000000000000010200D
:10537000604080000000000000000000000000000D
:105380000000000183C64428381000000000100807
:105390000C0402010100000000000000000080C0B9
:1053A000202010101010103020E0C0000000030377
:1053B000030000E0101008080407030000000000CC
:1053C00000001C1C1C1C00000000000000000080ED
:1053D000C0402020202020404080000000FCFF032F
:1053E00000F0FC0E03C1FD1F00C13F0000000306DA
:1053F0000C0811111110110909040200000000002D
:105400000000E0E0E000000000000000000000C03C
:1054100078474040477FF8C00000000010101E1180
:10542000100000000000111F1E101000002020E0DE
:10543000E020202020206060C0800000000000FFED
:10544000FF1010101010182867C780000010101FE0
:105450001F101010101010180C0F07000000008013
:10546000C04020202020202060E0000000FCFF033E
:105470000000000000000000000001000001030621
:105480000C1810101010100808040300002020E071
:10549000E0202020202040C080000000000000FF0D
:1054A000FF0000000000000001FFFE000010101FC0
:1054B0001F1010101018080C07030000002020E037
:1054C000E02020202020202060608000000000FFDD
:1054D000FF1010101010107C000000000010101FB2
:1054E0001F10101010101010181C0600002020E0D3
:1054F000E0202020202020206060E000000000FF4D
:10550000FF101010101010307C0000010010101F50
:105510001F101000000000000000000000000080CC
:10552000C040202020202040E000000000FCFF03BD
:105530000000000000004040C0C1404000000307E0
:105540000C181010101010180F0F00002020E0E0B1
:1055500020200000002020E0E02020000000FFFFCD
:1055600010101010101010FFFF00000010101F1F6F
:10557000101000000010101F1F101000000000206D
:10558000202020E0E020202020000000000000007B
:10559000000000FFFF0000000000000000000010FD
:1055A0001010101F1F10101010000000000000004D
:1055B0000020202020E0E02020202000000000002B
:1055C0000000000000FFFF00000000000060E0E0BD
:1055D00080808080407F3F0000000000002020E0AD
:1055E000E02020000020A06060202000000000FFDC
:1055F000FF30181C7EE3C100000000000010101FE7
:105600001F101000000013171E181010002020E0BB
:10561000E02020000000000000000000000000FF6B
:10562000FF00000000000000000000000010101F3C
:105630001F10101010101010181C06002020E0E0A1
:10564000E0000000000000E0E0E020200000FF019A
:105650000FFEF00080700F01FFFF000010101F1000
:105660001000071F030010101F1F10102020E0E083
:10567000E080000000002020E02020000000FF006B
:1056800001071E3CF0E08000FF00000010101F101A
:10569000100000000001071E1F0000000000008035
:1056A000C0602020202060408000000000FCFF013E
:1056B000000000000000000001FFFC0000000306E5
:1056C0000C1810101010180806030000002020E02D
:1056D000E020202020202060C0C00000000000FF4B
:1056E000FF20202020202030101F07000010101F56
:1056F0001F101000000000000000000000000080EB
:10570000C0602020202060408000000000FCFF01DD
:10571000000000000000000001FFFE00000107067D
:105720000E191111131E3C7866632000002020E042
:10573000E020202020206060C0800000000000FFEA
:10574000FF10103070F098080F0700000010101FB5
:105750001F1010000001071F1C101000000080C067
:105760004020202020202040C0E000000000070F43
:105770000C08181810303060E0C180000000031ED3
:105780000808101010101018080F07000080E02003
:10579000202020E0E0202020206080000001000088
:1057A000000000FFFF0000000000010000000000FA
:1057B0000010101F1F101000000000002020E0E06B
:1057C0002020000000002020E02020000000FFFF3B
:1057D0000000000000000000FF0000000000070FB4
:1057E000081010101010080807000000002020E02A
:1057F000E02000000000002020E020200000000148
:10580000073FF8C00000C03807000000000000009B
:105810000000010F1F0E01000000000020E0E0204A
:10582000200020E0E020000020E0602000001FFFBA
:10583000E000E01D3FFCC08078070000000000038E
:105840001F07000000031F0700000000002020E0E9
:10585000E0A020000020A0E02020000000000000C8
:105860000187DE3CF8C6810000000000001010181F
:10587000161100000011171E1C101000002060E01F
:10588000E0202000000020A0E02020000000000018
:10589000030F3CF8E01806010000000000000000C3
:1058A0000010101F1F10100000000000000080609A
:1058B000602020202020E0E06020000000000000A8
:1058C00000C0E0781E0F0301000000000010181E49
:1058D00017131010101010181C0600000000000014
:1058E0000000FC04040404040404000000000000A0
:1058F0000000FF00000000000000000000000000A9
:1059000000007F4040404040404000000000003028
:10591000E080000000000000000000000000000027
:105920000001071C70C00000000000000000000023
:10593000000000000001071C70C00000000004040B
:105940000404040404FC0000000000000000000047
:105950000000000000FF00000000000000004040C8
:1059600040404040407F0000000000000000000078
:1059700010080C0404040C081000000000000000D3
:105980000000000000000000000000000000000017
:105990000000000000000000000000000000000007
:1059A00000000000000000000000000000000000F7
:1059B00000000000000000000000000080808080E7
:1059C00080808080808080808080808000000000D7
:1059D00004040408080000000000000000000000AB
:1059E00000000000000000000000000000000000B7
:1059F00000000000000000000000000000000000A7
:105A0000000000000000000000000000000098D826
:105A1000444444242424F8F80000000000070F1830
:105A20001010101008080F1F10100800002020E0B0
:105A3000F00000000000000000000000000000FF77
:105A4000FF1008040404040418F8E0000000001F1C
:105A50000F081010101010180C07030000000000B1
:105A60000000000000000000000000000000E0F066
:105A70001808040404040C38300000000000030778
:105A80000C181010101010080C020000000000008C
:105A900000000000002020E0F00000000000E0F026
:105AA000180C0404040408FFFF0000000000030FAA
:105AB0000C18101010080C1F0F0808000000000040
:105AC0000000000000000000000000000000E0F006
:105AD00048484444444444487860000000000307B8
