:020000040800F2
:10000000403200209D010008BD0F0008E90D0008E6
:10001000B90F0008FD080008ED15000800000000F9
:10002000000000000000000000000000FD100008BB
:10003000010900080000000065100008B501000873
:10004000B7010008B7010008B7010008B5100008A3
:10005000B7010008B701000805090008B70100084A
:10006000350900086509000895090008B70100086E
:10007000B7010008B7010008B7010008B701000880
:10008000B7010008B701000899080008B701000887
:10009000B7010008B7010008B7010008B701000860
:1000A000B7010008B7010008B7010008B701000850
:1000B000B7010008B7010008B7010008B701000840
:1000C000B7010008B7010008B7010008B701000830
:1000D000B7010008A9150008B7010008B70100081A
:1000E000B701000869100008B7010008551400089E
:1000F000B7010008B7010008B7010008B701000800
:10010000B7010008B701000849130008B70100084B
:10011000B7010008B701000815140008B70100086E
:10012000B7010008B7010008B7010008B7010008CF
:10013000B7010008B7010008B7010008B7010008BF
:10014000B7010008B7010008B7010008B7010008AF
:10015000B7010008B7010008B7010008B70100089F
:10016000B7010008B7010008B7010008B70100088F
:10017000B7010008B7010008B7010008B70100087F
:10018000B7010008B7010008DFF80CD000F042FB0F
:1001900000480047E121000840320020064880471F
:1001A00006480047FEE7FEE7FEE7FEE7FEE7FEE75C
:1001B000FEE7FEE7FEE7FEE7E1120008890100081E
:1001C0002DE9FE4F804681EA0300C00F0C460090E7
:1001D00021F0004123F00045B8EB0200A94105D20F
:1001E0004046214690461C460B46024623F00040FE
:1001F000104347D0270DC7F30A00C3F30A510290FA
:10020000401A019040286BDAC3F3130040F4801BBE
:100210000098924620B10023D2EB030A63EB0B0B4C
:1002200001985946C0F14002504600F0FEF90646DA
:100230000D4650465946019A00F016FA10EB080098
:100240006141002487EA115284EAE7731A4340D0DF
:10025000009A62B3019A012A4FEA075215DC001B8B
:1002600061EB02014FF0004202EA0752CDE9004281
:10027000001C41F5801132462B4600F04DFA03B0C8
:10028000BDE8F08F40462146F9E7001B61EB020113
:10029000001C41F5801300185B412018A2F50017DF
:1002A00047EB030140EAD570B6196D4111E06D08C6
:1002B0004FEA360645EAC0754FEA0752001B61EB6C
:1002C0000201001C41F5801149084FEA3000001975
:1002D000514132462B4603B0BDE8F04F00F00DBA55
:1002E0000098012240000023D0EB020263EBE07390
:1002F000009821464FEAE074B8EB000061EB04017E
:10030000E9E783F000435BE781F0004158E72DE91E
:10031000FE4F81EA030404F0004421F00041009400
:100320004FF0000B23F0004350EA01045ED052EA84
:1003300003045BD0C3F30A54C1F30A552C44A4F25E
:10034000F3340194A0FB0254C1F3130141F4801172
:10035000C3F3130343F4801301FB024400FB034E79
:10036000840A970A44EA815447EA8357A4FB076842
:1003700002958D0A05FB07854FEA932C04FB0C546C
:100380002705029D4FEA065847EA1637B5EB0805E0
:100390006EEB070C870E920E47EA811742EA831232
:1003A000A7FB0201B6EB0B0164EB00042B0D43EA43
:1003B0000C335E1844EB1C50DA465146E7FB020151
:1003C000C5F313044FEA0B3343EA14534FEA0432E4
:1003D000019C43EA0603A4F10C040294009CCDE9BD
:1003E00000B400F099F903B0BDE8F08F0020014699
:1003F000F9E72DE9F04D81EA030404F0004B21F008
:10040000004514464FF0000A23F0004150EA05026F
:1004100020D054EA01021DD0C5F30A570246C5F3A5
:100420001303C1F31300C1F30A5640F4801543F4DB
:100430008013A7EB0608101BD64608F2FD3873EBB5
:10044000050002D308F1010801E092185B41B8F100
:10045000000F03DA00200146BDE8F08D00204FF4C4
:100460008011064684460EE0171B73EB050705D383
:10047000121B63EB050306434CEA010C49084FEAE3
:10048000300092185B4150EA0107EDD152EA0300B7
:1004900012D082EA040083EA0501084305D0101B4C
:1004A000AB4106D20122002306E000224FF00043B8
:1004B00002E06FF0010253101AEB06004CEB0851FA
:1004C00010EB0A0041EB0B01BDE8F04D00F015B94F
:1004D0000EB5C10F80EAE0700844CA07002140F25F
:1004E00033438DE80E000A460B4600F015F903B0C1
:1004F00000BD0EB540F2334102910021CDE900115B
:100500000A460B4600F008F903B000BDC1F30A52D9
:1005100010B5C1F3130140F2FF3341F480119A4248
:1005200001DA002010BD40F233439A42A2F2334276
:1005300003DC524200F088F810BD904010BD00F07E
:10054000004230F000400AD0C10D01F56071C0F3E7
:10055000160042EA0151C2084007114370470020CB
:100560000146704701F0004330B421F0004150EAE9
:10057000010206D00A0DA2F56072C1F31301002A30
:1005800002DC30BC00207047440F44EAC104C100C3
:10059000E01830BC00EBC25000F078B830B50B4624
:1005A000014600202022012409E021FA02F59D42A3
:1005B00005D303FA02F5491B04FA02F52844151E77
:1005C000A2F10102F1DC30BD2DE9F05F054600200B
:1005D00092469B4688460646814640241BE02846B4
:1005E00041464746224600F02FF853465A46C01A65
:1005F000914110D311461846224600F016F82D1AE4
:1006000067EB01084F4622460120002100F00DF85B
:1006100017EB00094E41201EA4F10104DFDC48461F
:1006200031462A464346BDE8F09F202A04DB203AA3
:1006300000FA02F1002070479140C2F1200320FA35
:1006400003F3194390407047202A04DB203A21FA33
:1006500002F00021704721FA02F3D040C2F12002DB
:100660009140084319467047202A06DBCB17203AF1
:1006700041FA02F043EAE07306E041FA02F3D040A7
:10068000C2F1200291400843194670470029A8BFD3
:100690007047401C490008BF20F00100704710B4AB
:1006A000B0FA80FC00FA0CF050EA010404BF10BC60
:1006B000704749B1CCF1200421FA04F411FA0CF18D
:1006C00018BF012121430843A3EB0C01CB1D4FEAC6
:1006D00000614FEA102042BF002010BC704700EBC1
:1006E000C35010440029A4BF10BC7047401C4900EF
:1006F00008BF20F0010010BC704710B5141E73F144
:10070000000408DA401C41F1000192185B411A43D1
:1007100001D120F0010010BD2DE9F04D92469B461D
:1007200011B1B1FA81F202E0B0FA80F220329046C3
:10073000FFF77BFF04460F4640EA0A0041EA0B013F
:1007400053465A46084313D0114653EA010019D0C4
:10075000C8F140025046FFF777FF05460E46504667
:1007600059464246FFF761FF084305D0012004E0E7
:1007700020463946BDE8F08D0020054346EAE07684
:100780002C4337430A986305E40AA0EB08000022D3
:10079000FD0A44EA47540A3002D500200146E9E741
:1007A000010510196941DDE9084500196941BDE8F5
:1007B000F04DA2E7C1F30A52C1F3130140F2FF3337
:1007C00041F480119A4202DA00200146704740F25B
:1007D00033439A42A2F2334202DC5242FFF734BF63
:1007E000FFF723BF30B5041E71F1000404DB4FF0A6
:1007F0000044404264EB0101141E73F1000405DB68
:100800001C464FF00043524263EB0403994208BF79
:10081000904230BD064C074D06E0E06840F0010311
:1008200094E8070098471034AC42F6D3FFF7B0FCC9
:1008300080220008A022000870B58D1810F8014B26
:1008400014F0030201D110F8012B231106D110F886
:10085000013B03E010F8016B01F8016B521EF9D166
:10086000ABB110F8012B04F00C048A1A0C2C03D045
:10087000A2EB84129B1C08E010F8014BA2EB0422AF
:10088000F8E712F8014B01F8014B5B1EF9D5A942BC
:10089000D4D3002070BD000010B52DED048B12489C
:1008A000006800F00200D8B10F48006820F0020094
:1008B0000D4908600846C06C0C490880084600884D
:1008C000FFF717FE41EC190B9FED090B53EC102BB2
:1008D000FFF71DFD41EC180BFFF718FE06490880D5
:1008E000BDEC048B10BD0000002001403200002050
:1008F0000000000000C8E93F3400002000BFFEE710
:10090000704700000948006800F0010068B107481E
:10091000006840F00100054908600548006808B912
:10092000012000E00020024908607047143C0140AB
:10093000988242420948006800F0040068B1074804
:10094000006840F00400054908600548006808B9DF
:10095000012000E00020024908607047143C01407B
:10096000A48242420948006800F0080068B10748C4
:10097000006840F00800054908600548006808B9AB
:10098000012000E00020024908607047143C01404B
:10099000A88242420948006800F0100068B1074888
:1009A000006840F01000054908600548006808B973
:1009B000012000E00020024908607047143C01401B
:1009C0008002414210B5002400200C4908609020AC
:1009D00000F0B2F8002000F01AF9FF2000F0ACF8A7
:1009E0000402FF2000F0A8F8044301200449C1F8E4
:1009F000B802214603A000F033FF10BDB882404288
:100A00000080404249443A305825580D0A00000001
:100A100010B5002004490860062000F08DF8012080
:100A20000249C1F8B80210BDB8824042008040427D
:100A3000F0B5C1B007460C46154615E024F0FF009E
:100A400000F58070001B86B2B54200D2AEB23A46C5
:100A5000314601A800F076F82246314601A800F0A0
:100A60003BF937443444AD1B002DE7D141B0F0BD14
:100A700070B5C0B004460D466FF30B046FF30B0561
:100A8000002611E022464FF48071684600F05AF8C3
:100A90002A464FF48071684600F01EF904F5807410
:100AA00005F58075701CC6B2102EEBDB40B070BD32
:100AB00010B500F09BFB00F001F810BD1448006871
:100AC00040F00200124908601248006820F04050CF
:100AD000104908600846006840F080500860081D12
:100AE000006820F48040091D08600A480C30006846
:100AF00020F0405007490C310860081F006820F0C2
:100B00004050091F08600120034908607047000039
:100B10003038024000040240B882404270B50546B9
:100B20000E46002405E005EB043000F03FF8601CA1
:100B300084B2B442F7DB70BD10B50446204600F025
:100B400091FB10BD2DE9F04105460E4617460020E9
:100B50000A4908600320FFF7EFFF384600F057F816
:100B6000002404E0FF20FFF7E7FF2855641CB4428F
:100B7000F8D3012001490860BDE8F081B882404205
:100B800010B50020074908600520FFF7D5FFFF20BA
:100B9000FFF7D2FF044601200349C1F8B8022046FE
:100BA00010BD0000B88240420080404210B50446AB
:100BB000FFF72EFF0020084908602020FFF7BCFF48
:100BC000204600F024F801200449C1F8B8024FF48F
:100BD000E17000F005F810BDB8824042008040424C
:100BE00070B505462C46002600BFFFF7C9FF064634
:100BF000012001F09EFA601E84B206F0010008B1E7
:100C0000002CF2D10CB1002070BD0120FCE731B501
:100C10006D46022404E0285DFFF78EFF601E44B29B
:100C2000002CF8DA38BD00002DE9F04107460C46EB
:100C3000154629E025F0FF0000F58070401B86B2C4
:100C4000B44200D2A6B2FFF7E3FE002012490860CA
:100C50000220FFF771FF2846FFF7D9FF4FF0000889
:100C600007E017F80800FFF767FF08F101001FFA17
:100C700080F8B045F5DB0120074908600520FFF743
:100C8000AFFF35443744A41B002CD3D101200249C7
:100C90000860BDE8F0810000B88240422DE9F041D3
:100CA00007460C46164610E0300B000300F5805056
:100CB000801B85B2AC4200D2A5B2324629463846E6
:100CC00000F038F82E442F44641B002CECD1072090
:100CD00001F02FFABDE8F0812DE9F04107460E46FC
:100CE000144624F0FF0000F58070001B1FFA80F806
:100CF000464500DAB046FFF78BFE00200C4908603D
:100D00000220FFF719FF2046FFF781FF002504E0CE
:100D1000785DFFF711FF681C85B24545F8DB0120BF
:100D2000034908600520FFF75BFFBDE8F081000084
:100D3000B88240422DE9F04781460F461446DFF85D
:100D4000A480C4F30B05200B000300F58050001BAA
:100D500086B2B74200D2BEB245B92046FFF726FFA1
:100D6000224631464846FFF75FFF39E0A819401E8A
:100D7000B0F5805F15D14046FFF718FF4146204689
:100D8000FFF776FE2046FFF711FF6A1E210B0903CD
:100D90004046FFF74DFE224631464846FFF744FFE6
:100DA0001EE04046FFF702FF41462046FFF760FE87
:100DB0002046FFF7FBFE6A1E210B09034046FFF7A2
:100DC00037FE224631464846FFF72EFFC5F58053D1
:100DD0009B1B5A1CA11908EB05039819FFF728FE65
:100DE000BDE8F08700F07F0000BFFEE71448006810
:100DF00040F00200124908601248006820F4702098
:100E0000104908600846006840F4A0200860081DEA
:100E1000006820F44070091D0860081D006820F477
:100E20007020091D0860081D006820F47020091D4D
:100E300008600120044908600449C1F8A002704715
:100E40003038024000040240A48240420080404208
:100E50002148006840F024001F4908601F480068CE
:100E60001F4908401D490860084600681D4908439D
:100E70001A490860081D006820F4C860091D086050
:100E8000081D006816490840144908310860081D0B
:100E900000681349084011490C3108601248006885
:100EA00020F00300104908600846006840F0010087
:100EB0000860081D006820F00100091D0860081D79
:100EC000006820F00300091D0860081D006820F07C
:100ED0000300091D086070473038024000140240CA
:100EE000FFCFC3FF001014000008024000F0F00123
:100EF00061BB00F0010119B100212D4A116002E02F
:100F000001212B4A116000F0020121B10021284A81
:100F10000C32116003E00121254A0C32116000F00F
:100F2000040121B10021224A1032116003E00121A5
:100F30001F4A1032116000F0080119B100211D4A4A
:100F4000116033E001211B4A11602FE000F0100115
:100F500039B11749096809B9012100E00021144A93
:100F6000116000F0200149B111490C31096809B93B
:100F7000012100E000210E4A0C32116000F0400116
:100F800049B10B491031096809B9012100E000217C
:100F9000074A1032116000F0800139B10549096833
:100FA00009B9012100E00021024A116070470000E8
:100FB000988242428002414200BFFEE7704700F043
:100FC0001F02012191404209920002F1E022C2F881
:100FD00000117047F0B503460C4603F00701C1F15C
:100FE0000700042801D9042001E0C1F107000646EA
:100FF000081D072801D2002000E0C81E0546012078
:10100000B040401E2040A8400127AF407F1E17403F
:101010003843F0BD10B5002807DA0A07140E054A58
:1010200000F00F031B1FD45403E00A07130E024AFB
:10103000135410BD18ED00E000E400E0014601F09B
:101040000702064B18684FF6FF031840044B034392
:1010500043EA0220014B1860704700000CED00E0ED
:101060000000FA057047000010B50D48006800F454
:10107000003028B10A48006840F400300849086090
:101080000848006800F4807040B10648006820F409
:1010900080700449086004A000F0E2FB10BD00006D
:1010A000143C01400C280040C4D6D6D341CFECC13B
:1010B000CB0A000010B50D48006800F4800028B18C
:1010C0000A48006840F48000084908600848006841
:1010D00000F4806040B10648006820F48060044954
:1010E000086004A000F0BCFB10BD0000143C0140EF
:1010F0000C280040BBBDD0D10A00000070470000A2
:101100000CB50020019000903448006840F4803015
:101110003249086000BF3148006800F40030009098
:101120000198401C0190009818B90198B0F5A04FA3
:10113000F1D12A48006800F4003010B1012000907D
:1011400001E0002000900098012846D1234840305B
:10115000006840F080502149403108602048006814
:1011600040F440401E4908601C48083000681B4994
:10117000083108600846006840F4004008600846EE
:10118000006840F4A05008601648091F0860081F56
:10119000006840F08070091F086000BF0F480068B9
:1011A00000F000700028F9D040F205700E49086088
:1011B0000A480830006820F0030008490831086038
:1011C0000846006840F00200086000BF034808308D
:1011D000006800F00C000828F8D10CBD003802406F
:1011E0000070004019544007003C02401948006854
:1011F00040F00200174908601748006820F47C603E
:10120000154908600846006840F488600860081DB9
:10121000006820F00800091D0860081D006820F023
:10122000C000091D08600846006840F408600860B6
:10123000081D006820F47C60091D086008460068ED
:1012400040F4807008600020044908600449C1F837
:101250009402704730380240000402408C824042C1
:101260000080404270B50446002520E0002013496C
:10127000086004F0800020B10120104908310860A6
:1012800003E000200D4908310860012000F076FFDE
:1012900001200A49086000F071FF6006040E08484A
:1012A000D0F8100208B144F00104681CC5B2082D42
:1012B000DCDB002001490860204670BD8C82404282
:1012C000008040424FF0E020006920F004004FF021
:1012D000E02108610846006920F0020008617047BB
:1012E00010B51548006840F47000134908601348B1
:1012F000006840F001001149086000200F490831E2
:1013000008600E4800680E4908400C4908600D4806
:10131000091D0860081F006820F48020091F08606C
:10132000002006490C310860FFF7EAFE4FF000602C
:1013300001498039086010BD88ED00E000380240A6
:10134000FFFFF6FE103000242B48008800F001005B
:1013500070B12948008820F00100274908802748FB
:101360000078012804D126480068401C2449086000
:101370002148008800F00200E8B31F48008820F0F0
:1013800002001D4908801D48007880B91A482430A1
:1013900000681C49088018481030008840F002009E
:1013A00015491031088001201449087023E01248C3
:1013B00024300068144908801148006800EB40019F
:1013C000C1EBC0100F490988C1EB00100E49098814
:1013D00008440E49086008481030008820F00200D8
:1013E000054910310880002005490860034908704C
:1013F0000120074908707047100C004019000020B8
:101400001C000020200000202200002024000020DA
:101410001A0000200C48008A00F0010090B10A4830
:10142000008A20F00100084908820848007848B185
:1014300006480078401EC0B20449087010B9012067
:1014400003490870704700000010004009000020A8
:10145000080000201D48008800F0040008B31B4865
:10146000008820F0040019490880184828300068D6
:1014700040F2DA51884202D9002015490870134819
:1014800028300068022802D2012011490870104853
:10149000007838B10D4828300068401C0B492831CD
:1014A000086006E0094828300068401E07492831D6
:1014B00008600648008800F0010028B10348008851
:1014C00020F001000149088070470000101800401A
:1014D000180000202DE9F04104460D460026304852
:1014E000006840F010002E4908602D482038006840
:1014F00040F010002A49203908600846006820F0B2
:10150000100008602748008840F0800025490880C6
:101510000846008820F0080008800846008820F06F
:10152000040008800846008820F002000880084671
:10153000808940F00100888108460485C56200204A
:1015400048620846808A40F00100888201E0701CF1
:1015500086B21448008A00F0010010B9B6F5D26FC7
:10156000F5DB1048008A20F001000E4908820520B2
:10157000FFF764FD002211460520FFF72BFD07460B
:1015800039463620FFF746FD3620FFF718FD05489F
:10159000008840F0010003490880BDE8F0810000A8
:1015A00040380240001000400B49098801F020013A
:1015B00081B10321094A117007498988C8B20849D5
:1015C000097839B907490A880988491C054B1980E7
:1015D00005498854704700000010014009000020B0
:1015E000080000200A0000204020002000BFFEE785
:1015F0002DE9F0472DED088B8C48006840F0010084
:101600008A4908608A4800688A4908408849086011
:101610000846006840F4201008600846406820F43E
:10162000007048600846806820F4402088600846C2
:10163000806840F4802088600846C06820F440201C
:10164000C8600846C06820F44010C8600846C068FA
:1016500040F48010C8600846406A20F47F617448F6
:101660004162406A40F4EE61714841626F48143053
:10167000006840F010006D49143108606B480C3868
:10168000006840F0100069490C390860084600689D
:1016900020F0100008606848808920F410406649F6
:1016A00088810846808940F00C0088810846008ABD
:1016B00020F44050088289890222A2EBD131C8006F
:1016C000FEF706FF41EC1B0B9FED5C0B53EC102B60
:1016D000FEF71DFE41EC1A0B53EC1A2B9FED590B34
:1016E00051EC100BFEF785FE41EC190BFEF73AFFAB
:1016F00008EE100ABCEEC80A10EE100A4FF6FF7191
:1017000001EA00142646E01704EB1070001100EE09
:10171000100AB8EEC00A38EE400AF3EE000A20EED6
:10172000200A10EE101A0846FEF709FF41EC1A0BCA
:101730009FED460B53EC102BFEF742FD41EC190BCD
:10174000FEF7E4FE85B244EA05003B4908810846FD
:10175000808940F0200088810846008820F0200021
:101760000880052002463B4B19684FF6FF031940DD
:10177000394B0B4343EA0221364B196000BF252049
:101780000522002637461346C3F10709B9F1040FB5
:1017900002D94FF0040901E0C3F10709C84603F17B
:1017A0000409B9F1070F02D24FF0000901E0A3F1DB
:1017B0000309CC464FF0010909FA08F9A9F101091A
:1017C00009EA060909FA0CF94FF0010A0AFA0CFABB
:1017D000AAF1010A0AEA070A49EA0A0100BF002839
:1017E00008DA0A07160E1B4A0C3200F00F031B1F03
:1017F000D65403E00A07130E184A135400BF2520DD
:1018000000F01F02012191404209920002F1E02202
:10181000C2F8001100BF0848808940F40050064912
:101820008881BDEC088BBDE8F087000030380240AD
:1018300000000240FEFFF3FF001001400000000026
:1018400000C0C24000000000F40694410000000007
:101850000000E03F0CED00E00000FA0500E400E0CD
:101860000FB4054B10B503A9044A029800F0CAF85A
:1018700010BC5DF814FB0000C92100080C0000201A
:1018800002E008C8121F08C1002AFAD17047704749
:10189000002001E001C1121F002AFBD170470000A7
:1018A0002DE9FF5FDDE90220010DDDF838B00243CC
:1018B00018D044F61050A1F2FF3141430D140F9897
:1018C000012820D0A5EB0B00401C5FEA000A4FF076
:1018D0000004474EDFF81C91A046504616D5CAF1C9
:1018E000000728E00F98012443A2012808D0002116
:1018F00000980F9BC0E90021C0E90243BDE8FF9FAB
:101900006FEA0B01F4E7CBF10000DEE7074612E0D7
:10191000F80707D02246334640464946FEF7F7FC13
:10192000804689462246334610461946FEF7EFFCAC
:1019300004460E467F10002FEAD1DDE90201BAF11C
:10194000000F42464B4602DAFEF7E1FC01E0FEF7EB
:1019500050FD04460E460022284BFEF743FF03D8F5
:101960004FF0FF30014607E00022254B204631466C
:10197000FEF726FCFEF71EFF102409E0002C0ADB10
:101980000A220023FEF720FE019B30321A55641E06
:1019900050EA0102F2D1641C019AC4F1110314440B
:1019A0000F9A012A03D0012208430DD10AE008430F
:1019B00004D000204FF0110B0F9080E7A3EB0B0534
:1019C0006D1E0DE05B4504DD4FF0000205F10105E1
:1019D00004E003DA4FF00002A5F10105002AECD083
:1019E00000980F99C0E90231C0E9004586E7000080
:1019F000000024400000F03F300000000000F043F1
:101A00000000E03F2DE9FF4F95B09B468946064612
:101A100000250FE2252877D100242746F84A012126
:101A2000059400E0044316F8013F203B01FA03F05F
:101A30001042F7D130782A2811D06FF02F03307878
:101A4000A0F13002092A16D8059A44F0020402EBEC
:101A5000820203EB42021044761C0590EFE759F82E
:101A6000042B0592002A03DA504244F400540590F6
:101A700044F00204761C30782E2816D116F8010F97
:101A800044F004042A280DD06FF02F023078A0F122
:101A90003003092B09D807EB870302EB4303C71870
:101AA000761CF3E759F8047B761C30786C280FD04D
:101AB00006DC4C2817D068280DD06A2814D104E021
:101AC000742810D07A280FD10DE044F400140AE0F5
:101AD00044F4801401E044F440147278824202D14C
:101AE00004F58014761C761C307866280BD013DC45
:101AF000582877D009DC002875D04528F6D046282C
:101B0000F4D047281AD19DE118E0632835D0642825
:101B100079D0652812D195E1702873D008DC672848
:101B2000F1D069286FD06E280DD06F2806D1B5E0AE
:101B300073282CD0752875D0782874D05A461799F8
:101B400090476D1C75E1C4F30250022809D00328A8
:101B50000DD0D9F8001004280DD00D6009F104094A
:101B600067E1D9F80010EA17C1E90052F6E7D9F8A1
:101B700000100D80F2E70D70F0E719F8041B8DF8E6
:101B8000001000208DF80100EA46012003E059F81A
:101B900004AB4FF0FF3061074FF0000102D40DE0BD
:101BA00008F101018846B9420FDA8045F8DB1AF8DE
:101BB00008100029F4D108E008F1010188468142AB
:101BC000FADB1AF808100029F6D105985B46A0EB5D
:101BD000080721463846179A00F094FA284400EB8B
:101BE000080507E04DE029E10DE01AF8010B5A461F
:101BF00017999047B8F10108F7D25B46214638465D
:101C0000179A13E142E00A220092C4F302524FF005
:101C1000000A022A08D059F804CB032A4FEAEC71D3
:101C20000AD00DE029E02AE009F1070121F00702BE
:101C3000F2E802C1914609E00FFA8CFC4FEAEC7120
:101C4000042A03D14FFA8CFC4FEAEC71002907DA21
:101C50000A460021DCF1000C61EB02012D2202E0BA
:101C6000220504D52B228DF80420012203E0E2078F
:101C700001D02022F7E7904659E00A2102E0102225
:101C80000DE010214FF0000A00910BE010224FF000
:101C9000000A44F004040827009203E008224FF0F1
:101CA000000A0092C4F30252022A05D059F804CB6C
:101CB0000021032A08D009E009F1070121F00702F9
:101CC000F2E802C1914605E01FFA8CFC042A01D11A
:101CD0000CF0FF0C4FF00008220728D5702806D022
:101CE000009B83F0100353EA0A0305D00EE0402264
:101CF0008DF80420012208E05CEA010206D03022BF
:101D00008DF804208DF8050002229046009B83F098
:101D1000080353EA0A030AD15CEA010201D162070F
:101D200005D530228DF804204FF001087F1E582879
:101D300004D034A003900EA802900DE036A0F9E77D
:101D400053466046009AFEF73FFC84460398825C47
:101D50000298401E029002705CEA0100F0D10298E5
:101D600006A9081A00F1200A600702D524F480347D
:101D700000E00127574502DDA7EB0A0000E0002044
:101D800000EB0A01009005984144401A0590E003D9
:101D900006D45B462146179A059800F0B3F905442E
:101DA000002706E001A85A46C05D179990476D1CB0
:101DB0007F1C4745F6DBE0030CD55B462146179AAE
:101DC000059800F09FF9054404E030205A46179921
:101DD00090476D1C0099481E00900029F5DC08E032
:101DE000029802995A460078491C02911799904727
:101DF0006D1CBAF10001AAF1010AF1DC65E10000F5
:101E000009280100303132333435363738396162D0
:101E10006364656600000000303132333435363794
:101E200038394142434445460000000000F058F96B
:101E30000544761C307800287FF4ECAD19B02846B4
:101E4000BDE8F08F620700D4062709F1070222F0EF
:101E5000070CFCE80223E14603F000485FEA080CA7
:101E600002D00FF2702C0DE05FEA045C02D50FF295
:101E7000682C07E05FEAC47C02D00FF2602C01E01E
:101E8000AFF2700C4FF0FF3823F00043CDF850C094
:101E900065280CD006DC452809D046281DD04728E7
:101EA0003DD13DE0662818D067287ED138E000217A
:101EB000112F01DB112000E0781CCDE9000106A9FB
:101EC0000EA8FFF7EDFCDDE90F010E9A039100214A
:101ED000009207F1010A04914DE04FF00040009795
:101EE000CDE9011006A90EA8FFF7DAFCDDE90F0223
:101EF00003920E9B11990022DDF80CA0009304922E
:101F000011B9791C00EB010AB7EB0A0004D4C0F147
:101F1000FF3007F1010A0490AAEB0700019044E0AA
:101F2000012F00DA01270021112F01DD112000E02F
:101F30003846CDE9000106A90EA8FFF7B1FCDDE99E
:101F40000F010E9A0391002104910092BA462107D5
:101F50000CD40399514500DA8A46BAF1010F05DD28
:101F6000009AAAF10101515C302908D0B84202DA86
:101F700010F1040F06DA0121CDE9011015E0AAF1F4
:101F80000101E9E7002805DC049901440491AAEB6A
:101F9000000102E0411C514500DD8A460499401AC7
:101FA000401C01904FF000400290200704D401989B
:101FB000504501DBCDF8048000208DF84F000298D9
:101FC0000DF14F07B0F1004F25D02B200E90029855
:101FD0004FF0020800280CDA404202902D200E90AB
:101FE00007E00A210298FEF7D9FA3031029007F88B
:101FF000011DB8F10001A8F10108F2DC02980028E7
:10200000EFD1791E0E980870307800F0200040F073
:10201000450007F8020D12A8C01B00F1070814982C
:10202000007800B1012000EB0A01019801EBE0719A
:1020300005984144401A401E0590E00306D45B46D3
:102040002146179A059800F05DF805441498007829
:1020500018B15A46179990476D1CE00324D55B468A
:102060002146179A059800F04DF805441CE00498A5
:10207000002807DBDDE90301884203DD0098405CAE
:10208000179901E0179930205A469047049805F1B6
:102090000105401C04900198401E019004D12E209F
:1020A0005A46179990476D1CBAF10001AAF1010A2E
:1020B000DDDC05E017F8010B5A46179990476D1CB7
:1020C000B8F10001A8F10108F4DC5B462146179A3B
:1020D0000598ABE62D0000002B000000200000005A
:1020E0002DE9F041044600251E461746880404D415
:1020F00005E039462020B0476D1C641EF9D52846FE
:10210000BDE8F0812DE9F041044600251E469046C9
:10211000C80301D5302700E02027880404D505E056
:1021200041463846B0476D1C641EF9D52846BDE8C7
:10213000F08101464FF0E022126922F001024FF0D7
:10214000E0231A6145F208224A435A6100229A614B
:102150001A46126942F001021A6100BF4FF0E022F4
:10216000106900F48032002AF8D04FF0E0221269A2
:1021700022F001024FF0E0231A6170474FF0E02295
:10218000126922F001024FF0E0231A61C0EBC00295
:1021900002EB42025A6100229A611A46126942F029
:1021A00001021A6100BF4FF0E022116901F4803290
:1021B000002AF8D04FF0E022126922F001024FF01D
:1021C000E0231A617047000000BF044A128802F041
:1021D0008002002AF9D0014B98807047001001401E
:1021E000ADF5005DFEF734FEFFF702FAFFF76AF87F
:1021F000FEF7FCFD0020FEF779FE642142F2D000DC
:10220000FFF768F9FEF754FCFEF7DCFB0521002020
:10221000FEF784FC102251021148FEF73FFD102208
:10222000510202A8FEF78EFC002408E002A8005D1F
:102230000B49095D884200D004E0601C84B2B4F50B
:10224000805FF3DB00BFB4F5805F03D105A0FFF72B
:1022500007FB03E0214606A0FFF702FB00BFFEE7F5
:1022600040000020D0B4C8EBB3C9B9A60A000000F2
:10227000B4EDCEF3CEBBD6C3A3BA25640A000000EA
:10228000A0220008000000204020000038080008BC
:1022900024230008402000200012000090180008AD
:1022A0002005140000000461016110C30100010158
:1022B00016280011FF303132333435363738394182
:1022C00043444546471001FF1001FF1001FF100174
:1022D000FF1001FF1001FF1001FF1001FF1001FFAF
:1022E0001001FF1001FF1001FF1001FF1001FF108E
:1022F00001FF1001FF1001FF1001FF1001FF10018D
:10230000FF1001FF1001FF1001FF1001FF1001FF7E
:102310001001FF1001FF1001FF1001FF1001FF105D
:0423200001CF1000D9
:040000050800018965
:00000001FF
