:020000040800F2
:10000000000400209D0100083F0700083707000892
:100010003B070008310700089D08000800000000A9
:10002000000000000000000000000000430700087E
:1000300035070008000000004107000831080008EB
:10004000B7010008B7010008B7010008B7010008B0
:10005000B7010008B7010008B7010008B7010008A0
:10006000B7010008B7010008B7010008B701000890
:10007000B7010008B7010008B7010008B701000880
:10008000B7010008B7010008B7010008B701000870
:10009000B7010008B7010008B7010008B701000860
:1000A000B7010008B7010008B7010008B701000850
:1000B000B7010008B7010008B7010008B701000840
:1000C000B7010008B7010008B7010008B701000830
:1000D000B7010008B7010008B7010008B701000820
:1000E000B7010008B7010008B7010008B701000810
:1000F000B7010008B7010008B7010008B701000800
:10010000B7010008B7010008B7010008B7010008EF
:10011000B7010008B7010008B7010008B7010008DF
:10012000B7010008B7010008B7010008B7010008CF
:10013000B7010008B7010008B7010008B7010008BF
:10014000B7010008B7010008B7010008B7010008AF
:10015000B7010008B7010008B7010008B70100089F
:10016000B7010008B7010008B7010008B70100088F
:10017000B7010008B7010008B7010008B70100087F
:10018000B7010008B7010008DFF80CD000F0BEFA94
:10019000004800479D0A00080004002006488047E8
:1001A00006480047FEE7FEE7FEE7FEE7FEE7FEE75C
:1001B000FEE7FEE7FEE7FEE73508000889010008D4
:1001C0002DE9FE4F804681EA0300C00F0C460090E7
:1001D00021F0004123F00045B8EB0200A94105D20F
:1001E0004046214690461C460B46024623F00040FE
:1001F000104347D0270DC7F30A00C3F30A510290FA
:10020000401A019040286BDAC3F3130040F4801BBE
:100210000098924620B10023D2EB030A63EB0B0B4C
:1002200001985946C0F14002504600F0AAF906462E
:100230000D4650465946019A00F0C2F910EB0800ED
:100240006141002487EA115284EAE7731A4340D0DF
:10025000009A62B3019A012A4FEA075215DC001B8B
:1002600061EB02014FF0004202EA0752CDE9004281
:10027000001C41F5801132462B4600F0F9F903B01D
:10028000BDE8F08F40462146F9E7001B61EB020113
:10029000001C41F5801300185B412018A2F50017DF
:1002A00047EB030140EAD570B6196D4111E06D08C6
:1002B0004FEA360645EAC0754FEA0752001B61EB6C
:1002C0000201001C41F5801149084FEA3000001975
:1002D000514132462B4603B0BDE8F04F00F0B9B9AA
:1002E0000098012240000023D0EB020263EBE07390
:1002F000009821464FEAE074B8EB000061EB04017E
:10030000E9E783F000435BE781F0004158E72DE91E
:10031000FE4F81EA030404F0004421F00041009400
:100320004FF0000B23F0004350EA01045ED052EA84
:1003300003045BD0C3F30A54C1F30A552C44A4F25E
:10034000F3340194A0FB0254C1F3130141F4801172
:10035000C3F3130343F4801301FB024400FB034E79
:10036000840A970A44EA815447EA8357A4FB076842
:1003700002958D0A05FB07854FEA932C04FB0C546C
:100380002705029D4FEA065847EA1637B5EB0805E0
:100390006EEB070C870E920E47EA811742EA831232
:1003A000A7FB0201B6EB0B0164EB00042B0D43EA43
:1003B0000C335E1844EB1C50DA465146E7FB020151
:1003C000C5F313044FEA0B3343EA14534FEA0432E4
:1003D000019C43EA0603A4F10C040294009CCDE9BD
:1003E00000B400F045F903B0BDE8F08F00200146ED
:1003F000F9E72DE9F04D81EA030404F0004B21F008
:10040000004514464FF0000A23F0004150EA05026F
:1004100020D054EA01021DD0C5F30A570246C5F3A5
:100420001303C1F31300C1F30A5640F4801543F4DB
:100430008013A7EB0608101BD64608F2FD3873EBB5
:10044000050002D308F1010801E092185B41B8F100
:10045000000F03DA00200146BDE8F08D00204FF4C4
:100460008011064684460EE0171B73EB050705D383
:10047000121B63EB050306434CEA010C49084FEAE3
:10048000300092185B4150EA0107EDD152EA0300B7
:1004900012D082EA040083EA0501084305D0101B4C
:1004A000AB4106D20122002306E000224FF00043B8
:1004B00002E06FF0010253101AEB06004CEB0851FA
:1004C00010EB0A0041EB0B01BDE8F04D00F0C1B8A4
:1004D0000EB5C10F80EAE0700844CA07002140F25F
:1004E00033438DE80E000A460B4600F0C1F803B016
:1004F00000BDC1F30A5210B5C1F3130140F2FF333E
:1005000041F480119A4201DA002010BD40F23343D9
:100510009A42A2F2334203DC524200F041F810BD8D
:10052000904010BD00F0004230F000400AD0C10DF4
:1005300001F56071C0F3160042EA0151C20840079C
:100540001143704700200146704701F0004330B46A
:1005500021F0004150EA010206D00A0DA2F56072B6
:10056000C1F31301002A02DC30BC00207047440FA5
:1005700044EAC104C100E01830BC00EBC25000F0F6
:1005800031B8202A04DB203A00FA02F1002070473B
:100590009140C2F1200320FA03F3194390407047C1
:1005A000202A04DB203A21FA02F00021704721FAC8
:1005B00002F3D040C2F1200291400843194670472F
:1005C000202A06DBCB17203A41FA02F043EAE07317
:1005D00006E041FA02F3D040C2F120029140084304
:1005E000194670470029A8BF7047401C490008BF42
:1005F00020F00100704710B4B0FA80FC00FA0CF053
:1006000050EA010404BF10BC704749B1CCF120048A
:1006100021FA04F411FA0CF118BF01212143084317
:10062000A3EB0C01CB1D4FEA00614FEA102042BF43
:10063000002010BC704700EBC35010440029A4BF39
:1006400010BC7047401C490008BF20F0010010BCDE
:10065000704710B5141E73F1000408DA401C41F114
:10066000000192185B411A4301D120F0010010BD36
:100670002DE9F04D92469B4611B1B1FA81F202E0AC
:10068000B0FA80F220329046FFF77BFF04460F4617
:1006900040EA0A0041EA0B0153465A46084313D088
:1006A000114653EA010019D0C8F140025046FFF745
:1006B00077FF05460E46504659464246FFF761FF12
:1006C000084305D0012004E020463946BDE8F08DFE
:1006D0000020054346EAE0762C4337430A98630539
:1006E000E40AA0EB08000022FD0A44EA47540A305D
:1006F00002D500200146E9E7010510196941DDE94D
:10070000084500196941BDE8F04DA2E7064C074DC8
:1007100006E0E06840F0010394E8070098471034D1
:10072000AC42F6D3FFF734FDBC0A0008CC0A00083F
:1007300000BFFEE7704700BFFEE700BFFEE770475F
:10074000704770470CB50020019000903448006855
:1007500040F480303249086000BF3148006800F43E
:10076000003000900198401C0190009818B9019841
:10077000B0F5A04FF1D12A48006800F4003010B164
:100780000120009001E0002000900098012846D14F
:1007900023484030006840F08050214940310860D3
:1007A0002048006840F440401E4908601C4808305A
:1007B00000681B49083108600846006840F40040A2
:1007C00008600846006840F4A05008601648091FF9
:1007D0000860081F006840F08070091F086000BFB3
:1007E0000F48006800F000700028F9D040F2057052
:1007F0000E4908600A480830006820F003000849E4
:10080000083108600846006840F00200086000BF38
:1008100003480830006800F00C000828F8D10CBD2F
:10082000003802400070004019544007003C02406C
:100830007047000010B51548006840F47000134977
:1008400008601348006840F001001149086000206A
:100850000F49083108600E4800680E4908400C49ED
:1008600008600D48091D0860081F006820F48020FA
:10087000091F0860002006490C310860FFF762FF7D
:100880004FF0006001498039086010BD88ED00E03C
:1008900000380240FFFFF6FE1030002400BFFEE7E4
:1008A00070B52DED088B5948006840F0010057499C
:1008B000086057480068574908405549086008468D
:1008C000006840F4201008600846406820F400707A
:1008D00048600846806820F44020886008468068A8
:1008E00040F4802088600846C06820F44020C8603A
:1008F0000846C06820F44010C8600846C06840F44C
:100900008010C8600846406A20F47F614048416218
:10091000406A40F4EE613E4841623C481430006851
:1009200040F0100039491431086038480C3800682C
:1009300040F0100035490C3908600846006820F086
:10094000100008603448808920F4104032498881C2
:100950000846808940F00C0088810846008A20F40F
:100960004050088289890222A2EBD131C800FFF7EA
:10097000AFFD41EC1B0B9FED290B53EC102BFFF748
:10098000C6FC41EC1A0B53EC1A2B9FED260B51ECD5
:10099000100BFFF72EFD41EC190BFFF7D6FD08EE0B
:1009A000100ABCEEC80A10EE100A4FF6FF7101EAF9
:1009B00000142546E01704EB1070001100EE100A39
:1009C000B8EEC00A38EE400AF3EE000A20EE200A24
:1009D00010EE101A0846FFF7A5FD41EC1A0B9FED2B
:1009E000130B53EC102BFFF7EBFB41EC190BFFF74C
:1009F00080FD86B244EA06000749088108468089DE
:100A000040F400508881BDEC088B70BD3038024046
:100A100000000240FEFFF3FF001001400000000054
:100A200000C0C24000000000F40694410000000035
:100A30000000E03F002100E0491C084A128802F053
:100A4000800212B9064A9142F6D3044A128802F093
:100A500080020AB1014A90807047000000100140F6
:100A60004090020010B50346002404E0185DFFF733
:100A7000E1FF601C84B2185D0028F7D110BD02E0D0
:100A800008C8121F08C1002AFAD170477047002019
:100A900001E001C1121F002AFBD170471CB505A15E
:100AA00003C9CDE90001FFF7FBFE02E06846FFF74E
:100AB000D9FFFBE766757765690A0000CC0A000874
:0C0AC00000000020000400008E0A000866
:040000050800018965
:00000001FF
